{
  "abi": [
    {
      "inputs": [],
      "stateMutability": "nonpayable",
      "type": "constructor"
    },
    {
      "anonymous": false,
      "inputs": [
        {
          "indexed": true,
          "internalType": "address",
          "name": "signer",
          "type": "address"
        },
        {
          "indexed": true,
          "internalType": "uint256",
          "name": "tokenId",
          "type": "uint256"
        },
        {
          "indexed": false,
          "internalType": "uint256",
          "name": "price",
          "type": "uint256"
        },
        {
          "indexed": false,
          "internalType": "address",
          "name": "priceFeed",
          "type": "address"
        },
        {
          "indexed": false,
          "internalType": "int256",
          "name": "tresholdPrice",
          "type": "int256"
        },
        {
          "indexed": false,
          "internalType": "int256",
          "name": "strikePrice",
          "type": "int256"
        },
        {
          "indexed": false,
          "internalType": "uint256",
          "name": "expiry",
          "type": "uint256"
        },
        {
          "indexed": false,
          "internalType": "uint256",
          "name": "marketId",
          "type": "uint256"
        }
      ],
      "name": "MakerAsk",
      "type": "event"
    },
    {
      "anonymous": false,
      "inputs": [
        {
          "indexed": true,
          "internalType": "address",
          "name": "taker",
          "type": "address"
        },
        {
          "indexed": true,
          "internalType": "address",
          "name": "maker",
          "type": "address"
        },
        {
          "indexed": true,
          "internalType": "uint256",
          "name": "tokenId",
          "type": "uint256"
        },
        {
          "indexed": false,
          "internalType": "uint256",
          "name": "price",
          "type": "uint256"
        }
      ],
      "name": "TakerBid",
      "type": "event"
    },
    {
      "inputs": [
        {
          "components": [
            {
              "internalType": "bool",
              "name": "isOrderAsk",
              "type": "bool"
            },
            {
              "internalType": "address",
              "name": "signer",
              "type": "address"
            },
            {
              "internalType": "uint256",
              "name": "price",
              "type": "uint256"
            },
            {
              "internalType": "uint256",
              "name": "tokenId",
              "type": "uint256"
            },
            {
              "internalType": "uint256",
              "name": "startTime",
              "type": "uint256"
            },
            {
              "internalType": "uint256",
              "name": "endTime",
              "type": "uint256"
            },
            {
              "internalType": "address",
              "name": "priceFeed",
              "type": "address"
            },
            {
              "internalType": "int256",
              "name": "tresholdPrice",
              "type": "int256"
            }
          ],
          "internalType": "struct OrderTypes.MakerOrder",
          "name": "makerAsk",
          "type": "tuple"
        },
        {
          "internalType": "int256",
          "name": "strikePrice",
          "type": "int256"
        },
        {
          "internalType": "uint256",
          "name": "expiry",
          "type": "uint256"
        },
        {
          "internalType": "uint256",
          "name": "marketId",
          "type": "uint256"
        }
      ],
      "name": "createMakerAsk",
      "outputs": [],
      "stateMutability": "nonpayable",
      "type": "function"
    },
    {
      "inputs": [],
      "name": "deployer",
      "outputs": [
        {
          "internalType": "address",
          "name": "",
          "type": "address"
        }
      ],
      "stateMutability": "view",
      "type": "function"
    },
    {
      "inputs": [
        {
          "internalType": "uint256",
          "name": "id",
          "type": "uint256"
        }
      ],
      "name": "getMakerAsk",
      "outputs": [
        {
          "components": [
            {
              "internalType": "bool",
              "name": "isOrderAsk",
              "type": "bool"
            },
            {
              "internalType": "address",
              "name": "signer",
              "type": "address"
            },
            {
              "internalType": "uint256",
              "name": "price",
              "type": "uint256"
            },
            {
              "internalType": "uint256",
              "name": "tokenId",
              "type": "uint256"
            },
            {
              "internalType": "uint256",
              "name": "startTime",
              "type": "uint256"
            },
            {
              "internalType": "uint256",
              "name": "endTime",
              "type": "uint256"
            },
            {
              "internalType": "address",
              "name": "priceFeed",
              "type": "address"
            },
            {
              "internalType": "int256",
              "name": "tresholdPrice",
              "type": "int256"
            }
          ],
          "internalType": "struct OrderTypes.MakerOrder",
          "name": "",
          "type": "tuple"
        }
      ],
      "stateMutability": "view",
      "type": "function"
    },
    {
      "inputs": [
        {
          "internalType": "uint256",
          "name": "",
          "type": "uint256"
        }
      ],
      "name": "makerAskById",
      "outputs": [
        {
          "internalType": "bool",
          "name": "isOrderAsk",
          "type": "bool"
        },
        {
          "internalType": "address",
          "name": "signer",
          "type": "address"
        },
        {
          "internalType": "uint256",
          "name": "price",
          "type": "uint256"
        },
        {
          "internalType": "uint256",
          "name": "tokenId",
          "type": "uint256"
        },
        {
          "internalType": "uint256",
          "name": "startTime",
          "type": "uint256"
        },
        {
          "internalType": "uint256",
          "name": "endTime",
          "type": "uint256"
        },
        {
          "internalType": "address",
          "name": "priceFeed",
          "type": "address"
        },
        {
          "internalType": "int256",
          "name": "tresholdPrice",
          "type": "int256"
        }
      ],
      "stateMutability": "view",
      "type": "function"
    },
    {
      "inputs": [
        {
          "components": [
            {
              "internalType": "bool",
              "name": "isOrderAsk",
              "type": "bool"
            },
            {
              "internalType": "address",
              "name": "taker",
              "type": "address"
            },
            {
              "internalType": "uint256",
              "name": "price",
              "type": "uint256"
            },
            {
              "internalType": "uint256",
              "name": "tokenId",
              "type": "uint256"
            }
          ],
          "internalType": "struct OrderTypes.TakerOrder",
          "name": "takerBid",
          "type": "tuple"
        }
      ],
      "name": "matchAskWithTakerBid",
      "outputs": [],
      "stateMutability": "payable",
      "type": "function"
    },
    {
      "inputs": [],
      "name": "predictionMarket",
      "outputs": [
        {
          "internalType": "address",
          "name": "",
          "type": "address"
        }
      ],
      "stateMutability": "view",
      "type": "function"
    },
    {
      "inputs": [
        {
          "internalType": "address",
          "name": "_predictionMarket",
          "type": "address"
        }
      ],
      "name": "setPredictionMarketAddress",
      "outputs": [],
      "stateMutability": "nonpayable",
      "type": "function"
    }
  ],
  "bytecode": {
    "object": "0x608060405234801561001057600080fd5b50600080546001600160a01b03191633179055610c66806100326000396000f3fe6080604052600436106100705760003560e01c8063c2ce10fe1161004e578063c2ce10fe146100ca578063d5f3948814610164578063d77feb651461019c578063def114b61461024e57600080fd5b80633ba58fce146100755780636ebabba91461009757806385edae49146100aa575b600080fd5b34801561008157600080fd5b50610095610090366004610a8b565b61026e565b005b6100956100a5366004610ad1565b610402565b3480156100b657600080fd5b506100956100c5366004610b01565b610860565b3480156100d657600080fd5b506100ea6100e5366004610b1e565b6108fb565b60405161015b9190600061010082019050825115158252602083015160018060a01b03808216602085015260408501516040850152606085015160608501526080850151608085015260a085015160a08501528060c08601511660c0850152505060e083015160e083015292915050565b60405180910390f35b34801561017057600080fd5b50600054610184906001600160a01b031681565b6040516001600160a01b03909116815260200161015b565b3480156101a857600080fd5b506102046101b7366004610b1e565b6002602081905260009182526040909120805460018201549282015460038301546004840154600585015460069095015460ff8516966101009095046001600160a01b0390811696169088565b6040805198151589526001600160a01b0397881660208a01528801959095526060870193909352608086019190915260a085015290911660c083015260e08201526101000161015b565b34801561025a57600080fd5b50600154610184906001600160a01b031681565b61027b6020850185610b45565b6102c25760405162461bcd60e51b81526020600482015260136024820152726f72646572206973206e6f7420616e2061736b60681b60448201526064015b60405180910390fd5b6102d26040850160208601610b01565b6001600160a01b0316336001600160a01b031614806102fb57506001546001600160a01b031633145b6103475760405162461bcd60e51b815260206004820152601860248201527f6d616b6572206d757374206265207468652073656e646572000000000000000060448201526064016102b9565b6060840135600090815260026020526040902084906103668282610b75565b5050606084013561037d6040860160208701610b01565b6001600160a01b03167fcab68c21c40e72f033b18a6c5e8d8f84dd4230af992725a7f5d2bf6a2c6f18d360408701356103bc60e0890160c08a01610b01565b604080519283526001600160a01b03909116602083015260e089013590820152606081018790526080810186905260a0810185905260c00160405180910390a350505050565b6104126040820160208301610b01565b6001600160a01b0316336001600160a01b0316146104725760405162461bcd60e51b815260206004820152601f60248201527f4f726465723a2054616b6572206d757374206265207468652073656e6465720060448201526064016102b9565b60608181013560009081526002602081815260409283902083516101008082018652825460ff811615158352046001600160a01b03908116938201849052600183015495820195909552928101549483019490945260038401546080830152600484015460a0830152600584015490921660c082015260069092015460e083015261053f5760405162461bcd60e51b815260206004820152601a60248201527f4f726465723a20546f6b656e206973206e6f74206c697374656400000000000060448201526064016102b9565b61054f6040830160208401610b01565b6001600160a01b031681602001516001600160a01b0316036105c55760405162461bcd60e51b815260206004820152602960248201527f4f726465723a204d616b657220616e642054616b65722063616e6e6f74206265604482015268207468652073616d6560b81b60648201526084016102b9565b805180156105dd57506105db6020830183610b45565b155b61061e5760405162461bcd60e51b81526020600482015260126024820152714f726465723a2057726f6e6720736964657360701b60448201526064016102b9565b8160400135341461067d5760405162461bcd60e51b815260206004820152602360248201527f4f726465723a204e6f7420656e6f756768203c6e61746976652063757272656e60448201526231bc9f60e91b60648201526084016102b9565b600061068983836109d1565b9050806106d85760405162461bcd60e51b815260206004820152601b60248201527f53747261746567793a20457865637574696f6e20696e76616c6964000000000060448201526064016102b9565b600082602001516001600160a01b03163460405160006040518083038185875af1925050503d8060008114610729576040519150601f19603f3d011682016040523d82523d6000602084013e61072e565b606091505b50509050806107775760405162461bcd60e51b81526020600482015260156024820152743330b4b632b21032ba3432b9103a3930b739b332b960591b60448201526064016102b9565b61079c83602001518560200160208101906107929190610b01565b8660600135610a18565b836060013583602001516001600160a01b03168560200160208101906107c29190610b01565b6001600160a01b03167fe07841b3b66aa3cf104926838e291cf5f51fab97ba83637607b3f430a9588cdd876040013560405161080091815260200190565b60405180910390a4505050606001356000908152600260208190526040822080546001600160a81b03191681556001810183905590810182905560038101829055600481018290556005810180546001600160a01b031916905560060155565b6000546001600160a01b031633146108d95760405162461bcd60e51b815260206004820152603660248201527f4f6e6c79206465706c6f7965722063616e206368616e6765207468652070726560448201527564696374696f6e206d61726b6574206164647265737360501b60648201526084016102b9565b600180546001600160a01b0319166001600160a01b0392909216919091179055565b61095760405180610100016040528060001515815260200160006001600160a01b031681526020016000815260200160008152602001600081526020016000815260200160006001600160a01b03168152602001600081525090565b5060009081526002602081815260409283902083516101008082018652825460ff811615158352046001600160a01b039081169382019390935260018201549481019490945291820154606084015260038201546080840152600482015460a084015260058201541660c08301526006015460e082015290565b6000826040013582604001511480156109f1575082606001358260600151145b8015610a01575042826080015111155b8015610a115750428260a0015110155b9392505050565b600154604051632142170760e11b81526001600160a01b038581166004830152848116602483015260448201849052909116906342842e0e90606401600060405180830381600087803b158015610a6e57600080fd5b505af1158015610a82573d6000803e3d6000fd5b50505050505050565b600080600080848603610160811215610aa357600080fd5b61010080821215610ab357600080fd5b95979588013596505050610120860135936101408701359350915050565b600060808284031215610ae357600080fd5b50919050565b6001600160a01b0381168114610afe57600080fd5b50565b600060208284031215610b1357600080fd5b8135610a1181610ae9565b600060208284031215610b3057600080fd5b5035919050565b8015158114610afe57600080fd5b600060208284031215610b5757600080fd5b8135610a1181610b37565b60008135610b6f81610ae9565b92915050565b8135610b8081610b37565b815490151560ff1660ff1991909116178155610bc7610ba160208401610b62565b828054610100600160a81b03191660089290921b610100600160a81b0316919091179055565b60408201356001820155606082013560028201556080820135600382015560a08201356004820155610c22610bfe60c08401610b62565b6005830180546001600160a01b0319166001600160a01b0392909216919091179055565b60e08201356006820155505056fea2646970667358221220b16023782e65b141868809b2a8ab5c41170cfaf27215c1a64a443464b672187664736f6c634300080d0033",
    "linkReferences": {}
  }
}