{
  "abi": [
    {
      "inputs": [],
      "stateMutability": "nonpayable",
      "type": "constructor"
    },
    {
      "anonymous": false,
      "inputs": [
        {
          "indexed": true,
          "internalType": "address",
          "name": "owner",
          "type": "address"
        },
        {
          "indexed": true,
          "internalType": "address",
          "name": "approved",
          "type": "address"
        },
        {
          "indexed": true,
          "internalType": "uint256",
          "name": "tokenId",
          "type": "uint256"
        }
      ],
      "name": "Approval",
      "type": "event"
    },
    {
      "anonymous": false,
      "inputs": [
        {
          "indexed": true,
          "internalType": "address",
          "name": "owner",
          "type": "address"
        },
        {
          "indexed": true,
          "internalType": "address",
          "name": "operator",
          "type": "address"
        },
        {
          "indexed": false,
          "internalType": "bool",
          "name": "approved",
          "type": "bool"
        }
      ],
      "name": "ApprovalForAll",
      "type": "event"
    },
    {
      "anonymous": false,
      "inputs": [
        {
          "indexed": false,
          "internalType": "address",
          "name": "priceFeed",
          "type": "address"
        },
        {
          "indexed": false,
          "internalType": "int256",
          "name": "strikePrice",
          "type": "int256"
        },
        {
          "indexed": false,
          "internalType": "uint256",
          "name": "expiry",
          "type": "uint256"
        },
        {
          "indexed": false,
          "internalType": "uint256",
          "name": "collateral",
          "type": "uint256"
        },
        {
          "indexed": false,
          "internalType": "uint256",
          "name": "marketId",
          "type": "uint256"
        },
        {
          "indexed": false,
          "internalType": "uint256",
          "name": "overPredictionId",
          "type": "uint256"
        },
        {
          "indexed": false,
          "internalType": "uint256",
          "name": "underPredictionId",
          "type": "uint256"
        }
      ],
      "name": "MarketCreated",
      "type": "event"
    },
    {
      "anonymous": false,
      "inputs": [
        {
          "indexed": true,
          "internalType": "address",
          "name": "from",
          "type": "address"
        },
        {
          "indexed": true,
          "internalType": "address",
          "name": "to",
          "type": "address"
        },
        {
          "indexed": true,
          "internalType": "uint256",
          "name": "tokenId",
          "type": "uint256"
        }
      ],
      "name": "Transfer",
      "type": "event"
    },
    {
      "inputs": [
        {
          "internalType": "address",
          "name": "to",
          "type": "address"
        },
        {
          "internalType": "uint256",
          "name": "tokenId",
          "type": "uint256"
        }
      ],
      "name": "approve",
      "outputs": [],
      "stateMutability": "nonpayable",
      "type": "function"
    },
    {
      "inputs": [
        {
          "internalType": "address",
          "name": "owner",
          "type": "address"
        }
      ],
      "name": "balanceOf",
      "outputs": [
        {
          "internalType": "uint256",
          "name": "",
          "type": "uint256"
        }
      ],
      "stateMutability": "view",
      "type": "function"
    },
    {
      "inputs": [
        {
          "components": [
            {
              "internalType": "address",
              "name": "priceFeed",
              "type": "address"
            },
            {
              "internalType": "int256",
              "name": "strikePrice",
              "type": "int256"
            },
            {
              "internalType": "uint256",
              "name": "expiry",
              "type": "uint256"
            },
            {
              "internalType": "uint256",
              "name": "collateral",
              "type": "uint256"
            }
          ],
          "internalType": "struct PredictionMarket.Market",
          "name": "market",
          "type": "tuple"
        }
      ],
      "name": "createMarket",
      "outputs": [
        {
          "internalType": "uint256",
          "name": "",
          "type": "uint256"
        },
        {
          "internalType": "uint256",
          "name": "",
          "type": "uint256"
        },
        {
          "internalType": "uint256",
          "name": "",
          "type": "uint256"
        }
      ],
      "stateMutability": "payable",
      "type": "function"
    },
    {
      "inputs": [
        {
          "components": [
            {
              "internalType": "address",
              "name": "priceFeed",
              "type": "address"
            },
            {
              "internalType": "int256",
              "name": "strikePrice",
              "type": "int256"
            },
            {
              "internalType": "uint256",
              "name": "expiry",
              "type": "uint256"
            },
            {
              "internalType": "uint256",
              "name": "collateral",
              "type": "uint256"
            }
          ],
          "internalType": "struct PredictionMarket.Market",
          "name": "market",
          "type": "tuple"
        },
        {
          "internalType": "bool",
          "name": "over",
          "type": "bool"
        },
        {
          "internalType": "uint256",
          "name": "listPrice",
          "type": "uint256"
        },
        {
          "internalType": "uint256",
          "name": "endTime",
          "type": "uint256"
        },
        {
          "internalType": "int256",
          "name": "tresholdPrice",
          "type": "int256"
        }
      ],
      "name": "createMarketWithPosition",
      "outputs": [
        {
          "internalType": "uint256",
          "name": "",
          "type": "uint256"
        },
        {
          "internalType": "uint256",
          "name": "",
          "type": "uint256"
        },
        {
          "internalType": "uint256",
          "name": "",
          "type": "uint256"
        }
      ],
      "stateMutability": "payable",
      "type": "function"
    },
    {
      "inputs": [],
      "name": "currentMarketId",
      "outputs": [
        {
          "internalType": "uint256",
          "name": "",
          "type": "uint256"
        }
      ],
      "stateMutability": "view",
      "type": "function"
    },
    {
      "inputs": [],
      "name": "currentPredictionId",
      "outputs": [
        {
          "internalType": "uint256",
          "name": "",
          "type": "uint256"
        }
      ],
      "stateMutability": "view",
      "type": "function"
    },
    {
      "inputs": [],
      "name": "deployer",
      "outputs": [
        {
          "internalType": "address",
          "name": "",
          "type": "address"
        }
      ],
      "stateMutability": "view",
      "type": "function"
    },
    {
      "inputs": [],
      "name": "exchangeAddress",
      "outputs": [
        {
          "internalType": "address",
          "name": "",
          "type": "address"
        }
      ],
      "stateMutability": "view",
      "type": "function"
    },
    {
      "inputs": [
        {
          "internalType": "uint256",
          "name": "id",
          "type": "uint256"
        }
      ],
      "name": "exercise",
      "outputs": [],
      "stateMutability": "nonpayable",
      "type": "function"
    },
    {
      "inputs": [
        {
          "internalType": "uint256",
          "name": "tokenId",
          "type": "uint256"
        }
      ],
      "name": "getApproved",
      "outputs": [
        {
          "internalType": "address",
          "name": "",
          "type": "address"
        }
      ],
      "stateMutability": "view",
      "type": "function"
    },
    {
      "inputs": [
        {
          "internalType": "uint256",
          "name": "id",
          "type": "uint256"
        }
      ],
      "name": "getMarket",
      "outputs": [
        {
          "components": [
            {
              "internalType": "address",
              "name": "priceFeed",
              "type": "address"
            },
            {
              "internalType": "int256",
              "name": "strikePrice",
              "type": "int256"
            },
            {
              "internalType": "uint256",
              "name": "expiry",
              "type": "uint256"
            },
            {
              "internalType": "uint256",
              "name": "collateral",
              "type": "uint256"
            }
          ],
          "internalType": "struct PredictionMarket.Market",
          "name": "",
          "type": "tuple"
        }
      ],
      "stateMutability": "view",
      "type": "function"
    },
    {
      "inputs": [
        {
          "internalType": "uint256",
          "name": "id",
          "type": "uint256"
        }
      ],
      "name": "getPrediction",
      "outputs": [
        {
          "components": [
            {
              "components": [
                {
                  "internalType": "address",
                  "name": "priceFeed",
                  "type": "address"
                },
                {
                  "internalType": "int256",
                  "name": "strikePrice",
                  "type": "int256"
                },
                {
                  "internalType": "uint256",
                  "name": "expiry",
                  "type": "uint256"
                },
                {
                  "internalType": "uint256",
                  "name": "collateral",
                  "type": "uint256"
                }
              ],
              "internalType": "struct PredictionMarket.Market",
              "name": "market",
              "type": "tuple"
            },
            {
              "internalType": "bool",
              "name": "over",
              "type": "bool"
            }
          ],
          "internalType": "struct PredictionMarket.Prediction",
          "name": "",
          "type": "tuple"
        }
      ],
      "stateMutability": "view",
      "type": "function"
    },
    {
      "inputs": [
        {
          "internalType": "address",
          "name": "owner",
          "type": "address"
        },
        {
          "internalType": "address",
          "name": "operator",
          "type": "address"
        }
      ],
      "name": "isApprovedForAll",
      "outputs": [
        {
          "internalType": "bool",
          "name": "",
          "type": "bool"
        }
      ],
      "stateMutability": "view",
      "type": "function"
    },
    {
      "inputs": [
        {
          "internalType": "uint256",
          "name": "",
          "type": "uint256"
        }
      ],
      "name": "marketById",
      "outputs": [
        {
          "internalType": "address",
          "name": "priceFeed",
          "type": "address"
        },
        {
          "internalType": "int256",
          "name": "strikePrice",
          "type": "int256"
        },
        {
          "internalType": "uint256",
          "name": "expiry",
          "type": "uint256"
        },
        {
          "internalType": "uint256",
          "name": "collateral",
          "type": "uint256"
        }
      ],
      "stateMutability": "view",
      "type": "function"
    },
    {
      "inputs": [],
      "name": "name",
      "outputs": [
        {
          "internalType": "string",
          "name": "",
          "type": "string"
        }
      ],
      "stateMutability": "view",
      "type": "function"
    },
    {
      "inputs": [
        {
          "internalType": "uint256",
          "name": "tokenId",
          "type": "uint256"
        }
      ],
      "name": "ownerOf",
      "outputs": [
        {
          "internalType": "address",
          "name": "",
          "type": "address"
        }
      ],
      "stateMutability": "view",
      "type": "function"
    },
    {
      "inputs": [
        {
          "internalType": "uint256",
          "name": "",
          "type": "uint256"
        }
      ],
      "name": "predictionById",
      "outputs": [
        {
          "components": [
            {
              "internalType": "address",
              "name": "priceFeed",
              "type": "address"
            },
            {
              "internalType": "int256",
              "name": "strikePrice",
              "type": "int256"
            },
            {
              "internalType": "uint256",
              "name": "expiry",
              "type": "uint256"
            },
            {
              "internalType": "uint256",
              "name": "collateral",
              "type": "uint256"
            }
          ],
          "internalType": "struct PredictionMarket.Market",
          "name": "market",
          "type": "tuple"
        },
        {
          "internalType": "bool",
          "name": "over",
          "type": "bool"
        }
      ],
      "stateMutability": "view",
      "type": "function"
    },
    {
      "inputs": [
        {
          "internalType": "address",
          "name": "from",
          "type": "address"
        },
        {
          "internalType": "address",
          "name": "to",
          "type": "address"
        },
        {
          "internalType": "uint256",
          "name": "tokenId",
          "type": "uint256"
        }
      ],
      "name": "safeTransferFrom",
      "outputs": [],
      "stateMutability": "nonpayable",
      "type": "function"
    },
    {
      "inputs": [
        {
          "internalType": "address",
          "name": "from",
          "type": "address"
        },
        {
          "internalType": "address",
          "name": "to",
          "type": "address"
        },
        {
          "internalType": "uint256",
          "name": "tokenId",
          "type": "uint256"
        },
        {
          "internalType": "bytes",
          "name": "data",
          "type": "bytes"
        }
      ],
      "name": "safeTransferFrom",
      "outputs": [],
      "stateMutability": "nonpayable",
      "type": "function"
    },
    {
      "inputs": [
        {
          "internalType": "address",
          "name": "operator",
          "type": "address"
        },
        {
          "internalType": "bool",
          "name": "approved",
          "type": "bool"
        }
      ],
      "name": "setApprovalForAll",
      "outputs": [],
      "stateMutability": "nonpayable",
      "type": "function"
    },
    {
      "inputs": [
        {
          "internalType": "address",
          "name": "_exchange",
          "type": "address"
        }
      ],
      "name": "setExchangeAddress",
      "outputs": [],
      "stateMutability": "nonpayable",
      "type": "function"
    },
    {
      "inputs": [
        {
          "internalType": "bytes4",
          "name": "interfaceId",
          "type": "bytes4"
        }
      ],
      "name": "supportsInterface",
      "outputs": [
        {
          "internalType": "bool",
          "name": "",
          "type": "bool"
        }
      ],
      "stateMutability": "view",
      "type": "function"
    },
    {
      "inputs": [],
      "name": "symbol",
      "outputs": [
        {
          "internalType": "string",
          "name": "",
          "type": "string"
        }
      ],
      "stateMutability": "view",
      "type": "function"
    },
    {
      "inputs": [
        {
          "internalType": "uint256",
          "name": "tokenId",
          "type": "uint256"
        }
      ],
      "name": "tokenURI",
      "outputs": [
        {
          "internalType": "string",
          "name": "",
          "type": "string"
        }
      ],
      "stateMutability": "view",
      "type": "function"
    },
    {
      "inputs": [
        {
          "internalType": "address",
          "name": "from",
          "type": "address"
        },
        {
          "internalType": "address",
          "name": "to",
          "type": "address"
        },
        {
          "internalType": "uint256",
          "name": "tokenId",
          "type": "uint256"
        }
      ],
      "name": "transferFrom",
      "outputs": [],
      "stateMutability": "nonpayable",
      "type": "function"
    }
  ],
  "bytecode": {
    "object": "0x61018060405260dc60808181529062002ca060a03980516200002a91600d91602090910190620000f2565b5060405180608001604052806053815260200162002d7c6053913980516200005b91600e91602090910190620000f2565b503480156200006957600080fd5b50604080518082018252600a8152691c0c9c1c1c99591a58dd60b21b60208083019182528351808501909452600384526207032760ec1b908401528151919291620000b791600091620000f2565b508051620000cd906001906020840190620000f2565b5050600780546001600160a01b03191633179055506000600a819055600c55620001d4565b828054620001009062000198565b90600052602060002090601f0160209004810192826200012457600085556200016f565b82601f106200013f57805160ff19168380011785556200016f565b828001600101855582156200016f579182015b828111156200016f57825182559160200191906001019062000152565b506200017d92915062000181565b5090565b5b808211156200017d576000815560010162000182565b600181811c90821680620001ad57607f821691505b602082108103620001ce57634e487b7160e01b600052602260045260246000fd5b50919050565b612abc80620001e46000396000f3fe6080604052600436106101665760003560e01c8063a22cb465116100d1578063d082ea8c1161008a578063e985e9c511610064578063e985e9c5146104ed578063eb44fdd31461050d578063f25425531461053a578063fe83bece1461054d57600080fd5b8063d082ea8c1461042f578063d5f394881461044f578063e91630551461046f57600080fd5b8063a22cb4651461030b578063ab98b8401461032b578063b07f0a4114610359578063b88d4fde14610379578063bc37bf5514610399578063c87b56dd1461040f57600080fd5b806342842e0e1161012357806342842e0e146102605780636352211e14610280578063640313e4146102a057806370a08231146102b657806395d89b41146102d65780639cd01605146102eb57600080fd5b806301ffc9a71461016b57806306fdde03146101a0578063081812fc146101c2578063095ea7b3146101fa57806323b872dd1461021c57806337c3f2f91461023c575b600080fd5b34801561017757600080fd5b5061018b610186366004611ff9565b610603565b60405190151581526020015b60405180910390f35b3480156101ac57600080fd5b506101b5610655565b604051610197919061206e565b3480156101ce57600080fd5b506101e26101dd366004612081565b6106e7565b6040516001600160a01b039091168152602001610197565b34801561020657600080fd5b5061021a6102153660046120af565b61070e565b005b34801561022857600080fd5b5061021a6102373660046120db565b610828565b34801561024857600080fd5b50610252600a5481565b604051908152602001610197565b34801561026c57600080fd5b5061021a61027b3660046120db565b610859565b34801561028c57600080fd5b506101e261029b366004612081565b610874565b3480156102ac57600080fd5b50610252600c5481565b3480156102c257600080fd5b506102526102d136600461211c565b6108d4565b3480156102e257600080fd5b506101b561095a565b3480156102f757600080fd5b506008546101e2906001600160a01b031681565b34801561031757600080fd5b5061021a61032636600461214e565b610969565b61033e61033936600461219b565b610978565b60408051938452602084019290925290820152606001610197565b34801561036557600080fd5b5061021a610374366004612081565b610c72565b34801561038557600080fd5b5061021a6103943660046121fe565b610f0b565b3480156103a557600080fd5b506103e56103b4366004612081565b60096020526000908152604090208054600182015460028301546003909301546001600160a01b0390921692909184565b604080516001600160a01b0390951685526020850193909352918301526060820152608001610197565b34801561041b57600080fd5b506101b561042a366004612081565b610f3d565b34801561043b57600080fd5b5061021a61044a36600461211c565b61104d565b34801561045b57600080fd5b506007546101e2906001600160a01b031681565b34801561047b57600080fd5b506104df61048a366004612081565b600b60209081526000918252604091829020825160808101845281546001600160a01b031681526001820154928101929092526002810154928201929092526003820154606082015260049091015460ff1682565b6040516101979291906122ee565b3480156104f957600080fd5b5061018b61050836600461230b565b6110e8565b34801561051957600080fd5b5061052d610528366004612081565b611116565b6040516101979190612344565b61033e610548366004612352565b611198565b34801561055957600080fd5b506105f6610568366004612081565b6040805160c0810182526000918101828152606082018390526080820183905260a0820183905281526020810191909152506000908152600b6020908152604091829020825160c08101845281546001600160a01b03169381019384526001820154606082015260028201546080820152600382015460a08201529283526004015460ff1615159082015290565b60405161019791906123a1565b60006001600160e01b031982166380ac58cd60e01b148061063457506001600160e01b03198216635b5e139f60e01b145b8061064f57506301ffc9a760e01b6001600160e01b03198316145b92915050565b606060008054610664906123c6565b80601f0160208091040260200160405190810160405280929190818152602001828054610690906123c6565b80156106dd5780601f106106b2576101008083540402835291602001916106dd565b820191906000526020600020905b8154815290600101906020018083116106c057829003601f168201915b5050505050905090565b60006106f28261133e565b506000908152600460205260409020546001600160a01b031690565b600061071982610874565b9050806001600160a01b0316836001600160a01b03160361078b5760405162461bcd60e51b815260206004820152602160248201527f4552433732313a20617070726f76616c20746f2063757272656e74206f776e656044820152603960f91b60648201526084015b60405180910390fd5b336001600160a01b03821614806107a757506107a781336110e8565b6108195760405162461bcd60e51b815260206004820152603e60248201527f4552433732313a20617070726f76652063616c6c6572206973206e6f7420746f60448201527f6b656e206f776e6572206e6f7220617070726f76656420666f7220616c6c00006064820152608401610782565b61082383836113a0565b505050565b610832338261140e565b61084e5760405162461bcd60e51b8152600401610782906123fa565b61082383838361146c565b61082383838360405180602001604052806000815250610f0b565b6000818152600260205260408120546001600160a01b03168061064f5760405162461bcd60e51b8152602060048201526018602482015277115490cdcc8c4e881a5b9d985b1a59081d1bdad95b88125160421b6044820152606401610782565b60006001600160a01b03821661093e5760405162461bcd60e51b815260206004820152602960248201527f4552433732313a2061646472657373207a65726f206973206e6f7420612076616044820152683634b21037bbb732b960b91b6064820152608401610782565b506001600160a01b031660009081526003602052604090205490565b606060018054610664906123c6565b610974338383611617565b5050565b6000806000348460600135146109d05760405162461bcd60e51b815260206004820152601760248201527f77726f6e6720636f6c6c61746572616c20616d6f756e740000000000000000006044820152606401610782565b600a80548591600991600091826109e68361245e565b9190505581526020019081526020016000208181610a049190612477565b9050506000604051806040016040528086803603810190610a2591906124bf565b81526020016001151581525090506000604051806040016040528087803603810190610a5191906124bf565b815260006020918201819052600c80548252600b83526040918290208651805182546001600160a01b0319166001600160a01b039091161782558085015160018301559283015160028201556060909201516003830155918501516004909101805460ff191691151591909117905554909150610acf9033906116e5565b600c8054610af5916000610ae28361245e565b91905055610af060016116ff565b611817565b600c80546000908152600b60209081526040918290208451805182546001600160a01b0319166001600160a01b0390911617825580830151600183015592830151600282015560609092015160038301558301516004909101805460ff191691151591909117905554610b699033906116e5565b600c8054610b8a916000610b7c8361245e565b91905055610af060006116ff565b7f1d80b5c03c77e5ff9ecc40eae1411a6af134c136587a0735b3cbf80722299043610bb8602088018861211c565b8760200135886040013589606001356001600a54610bd6919061252e565b6002600c54610be5919061252e565b6001600c54610bf4919061252e565b604080516001600160a01b0390981688526020880196909652948601939093526060850191909152608084015260a083015260c082015260e00160405180910390a16001600a54610c45919061252e565b6002600c54610c54919061252e565b6001600c54610c63919061252e565b94509450945050509193909250565b33610c7c82610874565b6001600160a01b031614610ce25760405162461bcd60e51b815260206004820152602760248201527f50726564696374696f6e4d61726b65743a206e6f742074686520636f727265636044820152663a1037bbb732b960c91b6064820152608401610782565b6000818152600b6020908152604091829020825160c08101845281546001600160a01b031693810193845260018201546060820152600282015460808201819052600383015460a083015293815260049091015460ff1615159181019190915290421015610d9e5760405162461bcd60e51b815260206004820152602360248201527f50726564696374696f6e4d61726b65743a206e6f7420617420657870697279206044820152621e595d60ea1b6064820152608401610782565b60008160000151600001516001600160a01b031663feaf968c6040518163ffffffff1660e01b815260040160a060405180830381865afa158015610de6573d6000803e3d6000fd5b505050506040513d601f19601f82011682018060405250810190610e0a919061255f565b505050915050816020015115610e4457815160200151811215610e3f5760405162461bcd60e51b8152600401610782906125af565b610e68565b8151602001518112610e685760405162461bcd60e51b8152600401610782906125af565b610e71836118b1565b81516060015160405160009133918381818185875af1925050503d8060008114610eb7576040519150601f19603f3d011682016040523d82523d6000602084013e610ebc565b606091505b5050905080610f055760405162461bcd60e51b81526020600482015260156024820152743330b4b632b21032ba3432b9103a3930b739b332b960591b6044820152606401610782565b50505050565b610f15338361140e565b610f315760405162461bcd60e51b8152600401610782906123fa565b610f05848484846118f1565b6060610f488261133e565b60008281526006602052604081208054610f61906123c6565b80601f0160208091040260200160405190810160405280929190818152602001828054610f8d906123c6565b8015610fda5780601f10610faf57610100808354040283529160200191610fda565b820191906000526020600020905b815481529060010190602001808311610fbd57829003601f168201915b505050505090506000610ff860408051602081019091526000815290565b9050805160000361100a575092915050565b81511561103c5780826040516020016110249291906125fc565b60405160208183030381529060405292505050919050565b61104584611924565b949350505050565b6007546001600160a01b031633146110c65760405162461bcd60e51b815260206004820152603660248201527f4f6e6c79206465706c6f7965722063616e206368616e6765207468652070726560448201527564696374696f6e206d61726b6574206164647265737360501b6064820152608401610782565b600880546001600160a01b0319166001600160a01b0392909216919091179055565b6001600160a01b03918216600090815260056020908152604080832093909416825291909152205460ff1690565b61114a604051806080016040528060006001600160a01b031681526020016000815260200160008152602001600081525090565b50600090815260096020908152604091829020825160808101845281546001600160a01b03168152600182015492810192909252600281015492820192909252600390910154606082015290565b6000806000806000806111aa8b610978565b9250925092506000604051806101000160405280600115158152602001336001600160a01b031681526020018b81526020018381526020014281526020018a81526020018d6000016020810190611201919061211c565b6001600160a01b0316815260200189905290508a156112a057600860009054906101000a90046001600160a01b03166001600160a01b0316633ba58fce828e602001358f60400135886040518563ffffffff1660e01b8152600401611269949392919061262b565b600060405180830381600087803b15801561128357600080fd5b505af1158015611297573d6000803e3d6000fd5b5050505061132c565b82816060018181525050600860009054906101000a90046001600160a01b03166001600160a01b0316633ba58fce828e602001358f60400135886040518563ffffffff1660e01b81526004016112f9949392919061262b565b600060405180830381600087803b15801561131357600080fd5b505af1158015611327573d6000803e3d6000fd5b505050505b50919a90995090975095505050505050565b6000818152600260205260409020546001600160a01b031661139d5760405162461bcd60e51b8152602060048201526018602482015277115490cdcc8c4e881a5b9d985b1a59081d1bdad95b88125160421b6044820152606401610782565b50565b600081815260046020526040902080546001600160a01b0319166001600160a01b03841690811790915581906113d582610874565b6001600160a01b03167f8c5be1e5ebec7d5bd14f71427d1e84f3dd0314c0f7b2291e5b200ac8c7c3b92560405160405180910390a45050565b60008061141a83610874565b9050806001600160a01b0316846001600160a01b03161480611441575061144181856110e8565b806110455750836001600160a01b031661145a846106e7565b6001600160a01b031614949350505050565b826001600160a01b031661147f82610874565b6001600160a01b0316146114e35760405162461bcd60e51b815260206004820152602560248201527f4552433732313a207472616e736665722066726f6d20696e636f72726563742060448201526437bbb732b960d91b6064820152608401610782565b6001600160a01b0382166115455760405162461bcd60e51b8152602060048201526024808201527f4552433732313a207472616e7366657220746f20746865207a65726f206164646044820152637265737360e01b6064820152608401610782565b600081815260046020908152604080832080546001600160a01b03191690556001600160a01b03861683526003909152812080546001929061158890849061252e565b90915550506001600160a01b03821660009081526003602052604081208054600192906115b69084906126a7565b909155505060008181526002602052604080822080546001600160a01b0319166001600160a01b0386811691821790925591518493918716917fddf252ad1be2c89b69c2b068fc378daa952ba7f163c4a11628f55a4df523b3ef91a4505050565b816001600160a01b0316836001600160a01b0316036116785760405162461bcd60e51b815260206004820152601960248201527f4552433732313a20617070726f766520746f2063616c6c6572000000000000006044820152606401610782565b6001600160a01b03838116600081815260056020908152604080832094871680845294825291829020805460ff191686151590811790915591519182527f17307eab39ab6107e8899845ad3d59bd9653f200f220920489ca2b5937696c31910160405180910390a3505050565b610974828260405180602001604052806000815250611998565b60408051808201825260038082526202433360ec1b60208084019190915283518085019094529083526214d3d360ea1b9083015260609160008461176057604051806040016040528060058152602001642aa72222a960d91b81525061177e565b6040518060400160405280600481526020016327ab22a960e11b8152505b90506000600d600e84848760405160200161179d959493929190612758565b604051602081830303815290604052905060006117e68484876117bf866119cb565b6040516020016117d294939291906127e1565b6040516020818303038152906040526119cb565b90506000816040516020016117fb91906128e2565b60408051601f1981840301815291905298975050505050505050565b6000828152600260205260409020546001600160a01b03166118925760405162461bcd60e51b815260206004820152602e60248201527f45524337323155524953746f726167653a2055524920736574206f66206e6f6e60448201526d32bc34b9ba32b73a103a37b5b2b760911b6064820152608401610782565b6000828152600660209081526040909120825161082392840190611f14565b6118ba81611b35565b600081815260066020526040902080546118d3906123c6565b15905061139d57600081815260066020526040812061139d91611f98565b6118fc84848461146c565b61190884848484611bd0565b610f055760405162461bcd60e51b815260040161078290612927565b606061192f8261133e565b600061194660408051602081019091526000815290565b905060008151116119665760405180602001604052806000815250611991565b8061197084611cd1565b6040516020016119819291906125fc565b6040516020818303038152906040525b9392505050565b6119a28383611dd2565b6119af6000848484611bd0565b6108235760405162461bcd60e51b815260040161078290612927565b805160609060008190036119ef575050604080516020810190915260008152919050565b600060036119fe8360026126a7565b611a08919061298f565b611a139060046129a3565b90506000611a228260206126a7565b67ffffffffffffffff811115611a3a57611a3a6121b7565b6040519080825280601f01601f191660200182016040528015611a64576020820181803683370190505b5090506000604051806060016040528060408152602001612a47604091399050600181016020830160005b86811015611af0576003818a01810151603f601282901c8116860151600c83901c8216870151600684901c831688015192909316870151600891821b60ff94851601821b92841692909201901b91160160e01b835260049092019101611a8f565b506003860660018114611b0a5760028114611b1b57611b27565b613d3d60f01b600119830152611b27565b603d60f81b6000198301525b505050918152949350505050565b6000611b4082610874565b9050611b4d6000836113a0565b6001600160a01b0381166000908152600360205260408120805460019290611b7690849061252e565b909155505060008281526002602052604080822080546001600160a01b0319169055518391906001600160a01b038416907fddf252ad1be2c89b69c2b068fc378daa952ba7f163c4a11628f55a4df523b3ef908390a45050565b60006001600160a01b0384163b15611cc657604051630a85bd0160e11b81526001600160a01b0385169063150b7a0290611c149033908990889088906004016129c2565b6020604051808303816000875af1925050508015611c4f575060408051601f3d908101601f19168201909252611c4c918101906129ff565b60015b611cac573d808015611c7d576040519150601f19603f3d011682016040523d82523d6000602084013e611c82565b606091505b508051600003611ca45760405162461bcd60e51b815260040161078290612927565b805181602001fd5b6001600160e01b031916630a85bd0160e11b149050611045565b506001949350505050565b606081600003611cf85750506040805180820190915260018152600360fc1b602082015290565b8160005b8115611d225780611d0c8161245e565b9150611d1b9050600a8361298f565b9150611cfc565b60008167ffffffffffffffff811115611d3d57611d3d6121b7565b6040519080825280601f01601f191660200182016040528015611d67576020820181803683370190505b5090505b841561104557611d7c60018361252e565b9150611d89600a86612a1c565b611d949060306126a7565b60f81b818381518110611da957611da9612a30565b60200101906001600160f81b031916908160001a905350611dcb600a8661298f565b9450611d6b565b6001600160a01b038216611e285760405162461bcd60e51b815260206004820181905260248201527f4552433732313a206d696e7420746f20746865207a65726f20616464726573736044820152606401610782565b6000818152600260205260409020546001600160a01b031615611e8d5760405162461bcd60e51b815260206004820152601c60248201527f4552433732313a20746f6b656e20616c7265616479206d696e746564000000006044820152606401610782565b6001600160a01b0382166000908152600360205260408120805460019290611eb69084906126a7565b909155505060008181526002602052604080822080546001600160a01b0319166001600160a01b03861690811790915590518392907fddf252ad1be2c89b69c2b068fc378daa952ba7f163c4a11628f55a4df523b3ef908290a45050565b828054611f20906123c6565b90600052602060002090601f016020900481019282611f425760008555611f88565b82601f10611f5b57805160ff1916838001178555611f88565b82800160010185558215611f88579182015b82811115611f88578251825591602001919060010190611f6d565b50611f94929150611fce565b5090565b508054611fa4906123c6565b6000825580601f10611fb4575050565b601f01602090049060005260206000209081019061139d91905b5b80821115611f945760008155600101611fcf565b6001600160e01b03198116811461139d57600080fd5b60006020828403121561200b57600080fd5b813561199181611fe3565b60005b83811015612031578181015183820152602001612019565b83811115610f055750506000910152565b6000815180845261205a816020860160208601612016565b601f01601f19169290920160200192915050565b6020815260006119916020830184612042565b60006020828403121561209357600080fd5b5035919050565b6001600160a01b038116811461139d57600080fd5b600080604083850312156120c257600080fd5b82356120cd8161209a565b946020939093013593505050565b6000806000606084860312156120f057600080fd5b83356120fb8161209a565b9250602084013561210b8161209a565b929592945050506040919091013590565b60006020828403121561212e57600080fd5b81356119918161209a565b8035801515811461214957600080fd5b919050565b6000806040838503121561216157600080fd5b823561216c8161209a565b915061217a60208401612139565b90509250929050565b60006080828403121561219557600080fd5b50919050565b6000608082840312156121ad57600080fd5b6119918383612183565b634e487b7160e01b600052604160045260246000fd5b604051601f8201601f1916810167ffffffffffffffff811182821017156121f6576121f66121b7565b604052919050565b6000806000806080858703121561221457600080fd5b843561221f8161209a565b93506020858101356122308161209a565b935060408601359250606086013567ffffffffffffffff8082111561225457600080fd5b818801915088601f83011261226857600080fd5b81358181111561227a5761227a6121b7565b61228c601f8201601f191685016121cd565b915080825289848285010111156122a257600080fd5b808484018584013760008482840101525080935050505092959194509250565b80516001600160a01b031682526020808201519083015260408082015190830152606090810151910152565b60a081016122fc82856122c2565b82151560808301529392505050565b6000806040838503121561231e57600080fd5b82356123298161209a565b915060208301356123398161209a565b809150509250929050565b6080810161064f82846122c2565b6000806000806000610100868803121561236b57600080fd5b6123758787612183565b945061238360808701612139565b949794965050505060a08301359260c08101359260e0909101359150565b600060a0820190506123b48284516122c2565b60208301511515608083015292915050565b600181811c908216806123da57607f821691505b60208210810361219557634e487b7160e01b600052602260045260246000fd5b6020808252602e908201527f4552433732313a2063616c6c6572206973206e6f7420746f6b656e206f776e6560408201526d1c881b9bdc88185c1c1c9bdd995960921b606082015260800190565b634e487b7160e01b600052601160045260246000fd5b60006001820161247057612470612448565b5060010190565b81356124828161209a565b81546001600160a01b0319166001600160a01b03919091161781556020820135600182015560408201356002820155606090910135600390910155565b6000608082840312156124d157600080fd5b6040516080810181811067ffffffffffffffff821117156124f4576124f46121b7565b60405282356125028161209a565b808252506020830135602082015260408301356040820152606083013560608201528091505092915050565b60008282101561254057612540612448565b500390565b805169ffffffffffffffffffff8116811461214957600080fd5b600080600080600060a0868803121561257757600080fd5b61258086612545565b94506020860151935060408601519250606086015191506125a360808701612545565b90509295509295909350565b6020808252602d908201527f50726564696374696f6e4d61726b65743a2063616e277420657865726369736560408201526c0818481b1bdcda5b99c818995d609a1b606082015260800190565b6000835161260e818460208801612016565b835190830190612622818360208801612016565b01949350505050565b8451151581526020808601516001600160a01b039081169183019190915260408087015190830152606080870151908301526080808701519083015260a0808701519083015260c0808701519091169082015260e094850151948101949094526101008401929092526101208301526101408201526101600190565b600082198211156126ba576126ba612448565b500190565b8054600090600181811c90808316806126d957607f831692505b602080841082036126fa57634e487b7160e01b600052602260045260246000fd5b81801561270e576001811461271f5761274c565b60ff1986168952848901965061274c565b60008881526020902060005b868110156127445781548b82015290850190830161272b565b505084890196505b50505050505092915050565b600061276d61276783896126bf565b876126bf565b855161277d818360208a01612016565b600160fd1b9101818152855190919061279d816001850160208a01612016565b600192019182015283516127b8816002840160208801612016565b6c1e17ba32bc3a1f1e17b9bb339f60991b60029290910191820152600f01979650505050505050565b693d913730b6b2911d101160b11b8152845160009061280781600a850160208a01612016565b8083019050600160fd1b80600a830152865161282a81600b850160208b01612016565b600b920191820152845161284581600c840160208901612016565b7f222c20226465736372697074696f6e223a202241206d61726b6574206f6e2070600c92909101918201527f3270707265646963742e222c2022696d616765223a2022646174613a696d6167602c82015270194bdcdd99cade1b5b0ed8985cd94d8d0b607a1b604c82015283516128c381605d840160208801612016565b016128d5605d820161227d60f01b9052565b605f019695505050505050565b7f646174613a6170706c69636174696f6e2f6a736f6e3b6261736536342c00000081526000825161291a81601d850160208701612016565b91909101601d0192915050565b60208082526032908201527f4552433732313a207472616e7366657220746f206e6f6e20455243373231526560408201527131b2b4bb32b91034b6b83632b6b2b73a32b960711b606082015260800190565b634e487b7160e01b600052601260045260246000fd5b60008261299e5761299e612979565b500490565b60008160001904831182151516156129bd576129bd612448565b500290565b6001600160a01b03858116825284166020820152604081018390526080606082018190526000906129f590830184612042565b9695505050505050565b600060208284031215612a1157600080fd5b815161199181611fe3565b600082612a2b57612a2b612979565b500690565b634e487b7160e01b600052603260045260246000fdfe4142434445464748494a4b4c4d4e4f505152535455565758595a6162636465666768696a6b6c6d6e6f707172737475767778797a303132333435363738392b2fa2646970667358221220f9afd1e3db68046328798db971f634de7fa31c54c16529c5bdbde3e7e36fa2ce64736f6c634300080d00333c73766720786d6c6e733d27687474703a2f2f7777772e77332e6f72672f323030302f73766727207072657365727665417370656374526174696f3d27784d696e594d696e206d656574272076696577426f783d273020302033353020333530273e3c7374796c653e2e62617365207b2066696c6c3a2077686974653b20666f6e742d66616d696c793a2073657269663b20666f6e742d73697a653a20323470783b207d3c2f7374796c653e3c726563742077696474683d273130302527206865696768743d2731303025272066696c6c3d27626c61636b27202f3e3c7465787420783d273530252720793d273530252720636c6173733d27626173652720646f6d696e616e742d626173656c696e653d276d6964646c652720746578742d616e63686f723d276d6964646c65273e",
    "linkReferences": {}
  }
}