{
  "abi": [
    {
      "inputs": [
        {
          "internalType": "address",
          "name": "_wrappedNativeAsset",
          "type": "address"
        }
      ],
      "stateMutability": "nonpayable",
      "type": "constructor"
    },
    {
      "anonymous": false,
      "inputs": [
        {
          "indexed": true,
          "internalType": "address",
          "name": "signer",
          "type": "address"
        },
        {
          "indexed": true,
          "internalType": "address",
          "name": "collection",
          "type": "address"
        },
        {
          "indexed": true,
          "internalType": "uint256",
          "name": "tokenId",
          "type": "uint256"
        },
        {
          "indexed": false,
          "internalType": "bool",
          "name": "isOrderAsk",
          "type": "bool"
        },
        {
          "indexed": false,
          "internalType": "address",
          "name": "currency",
          "type": "address"
        },
        {
          "indexed": false,
          "internalType": "uint256",
          "name": "amount",
          "type": "uint256"
        },
        {
          "indexed": false,
          "internalType": "uint256",
          "name": "price",
          "type": "uint256"
        },
        {
          "indexed": false,
          "internalType": "uint256",
          "name": "startTime",
          "type": "uint256"
        },
        {
          "indexed": false,
          "internalType": "uint256",
          "name": "endTime",
          "type": "uint256"
        },
        {
          "indexed": false,
          "internalType": "address",
          "name": "underlyingPriceFeed",
          "type": "address"
        },
        {
          "indexed": false,
          "internalType": "uint256",
          "name": "underlyingPriceTreshold",
          "type": "uint256"
        }
      ],
      "name": "MakerAsk",
      "type": "event"
    },
    {
      "anonymous": false,
      "inputs": [
        {
          "indexed": true,
          "internalType": "address",
          "name": "signer",
          "type": "address"
        },
        {
          "indexed": true,
          "internalType": "address",
          "name": "collection",
          "type": "address"
        },
        {
          "indexed": true,
          "internalType": "uint256",
          "name": "tokenId",
          "type": "uint256"
        },
        {
          "indexed": false,
          "internalType": "bool",
          "name": "isOrderAsk",
          "type": "bool"
        },
        {
          "indexed": false,
          "internalType": "address",
          "name": "currency",
          "type": "address"
        },
        {
          "indexed": false,
          "internalType": "uint256",
          "name": "amount",
          "type": "uint256"
        },
        {
          "indexed": false,
          "internalType": "uint256",
          "name": "price",
          "type": "uint256"
        },
        {
          "indexed": false,
          "internalType": "uint256",
          "name": "startTime",
          "type": "uint256"
        },
        {
          "indexed": false,
          "internalType": "uint256",
          "name": "endTime",
          "type": "uint256"
        },
        {
          "indexed": false,
          "internalType": "address",
          "name": "underlyingPriceFeed",
          "type": "address"
        },
        {
          "indexed": false,
          "internalType": "uint256",
          "name": "underlyingPriceTreshold",
          "type": "uint256"
        }
      ],
      "name": "MakerBid",
      "type": "event"
    },
    {
      "anonymous": false,
      "inputs": [
        {
          "indexed": true,
          "internalType": "address",
          "name": "taker",
          "type": "address"
        },
        {
          "indexed": true,
          "internalType": "address",
          "name": "maker",
          "type": "address"
        },
        {
          "indexed": true,
          "internalType": "uint256",
          "name": "tokenId",
          "type": "uint256"
        },
        {
          "indexed": false,
          "internalType": "address",
          "name": "currency",
          "type": "address"
        },
        {
          "indexed": false,
          "internalType": "address",
          "name": "collection",
          "type": "address"
        },
        {
          "indexed": false,
          "internalType": "uint256",
          "name": "amount",
          "type": "uint256"
        },
        {
          "indexed": false,
          "internalType": "uint256",
          "name": "price",
          "type": "uint256"
        }
      ],
      "name": "TakerAsk",
      "type": "event"
    },
    {
      "anonymous": false,
      "inputs": [
        {
          "indexed": true,
          "internalType": "address",
          "name": "taker",
          "type": "address"
        },
        {
          "indexed": true,
          "internalType": "address",
          "name": "maker",
          "type": "address"
        },
        {
          "indexed": true,
          "internalType": "uint256",
          "name": "tokenId",
          "type": "uint256"
        },
        {
          "indexed": false,
          "internalType": "address",
          "name": "currency",
          "type": "address"
        },
        {
          "indexed": false,
          "internalType": "address",
          "name": "collection",
          "type": "address"
        },
        {
          "indexed": false,
          "internalType": "uint256",
          "name": "amount",
          "type": "uint256"
        },
        {
          "indexed": false,
          "internalType": "uint256",
          "name": "price",
          "type": "uint256"
        }
      ],
      "name": "TakerBid",
      "type": "event"
    },
    {
      "inputs": [],
      "name": "WRAPPED_NATIVE_ASSET",
      "outputs": [
        {
          "internalType": "address",
          "name": "",
          "type": "address"
        }
      ],
      "stateMutability": "view",
      "type": "function"
    },
    {
      "inputs": [
        {
          "components": [
            {
              "internalType": "bool",
              "name": "isOrderAsk",
              "type": "bool"
            },
            {
              "internalType": "address",
              "name": "signer",
              "type": "address"
            },
            {
              "internalType": "address",
              "name": "collection",
              "type": "address"
            },
            {
              "internalType": "uint256",
              "name": "price",
              "type": "uint256"
            },
            {
              "internalType": "uint256",
              "name": "tokenId",
              "type": "uint256"
            },
            {
              "internalType": "uint256",
              "name": "amount",
              "type": "uint256"
            },
            {
              "internalType": "address",
              "name": "currency",
              "type": "address"
            },
            {
              "internalType": "uint256",
              "name": "startTime",
              "type": "uint256"
            },
            {
              "internalType": "uint256",
              "name": "endTime",
              "type": "uint256"
            },
            {
              "internalType": "address",
              "name": "underlyingPriceFeed",
              "type": "address"
            },
            {
              "internalType": "uint256",
              "name": "underlyingPriceTreshold",
              "type": "uint256"
            }
          ],
          "internalType": "struct OrderTypes.MakerOrder",
          "name": "makerAsk",
          "type": "tuple"
        }
      ],
      "name": "createMakerAsk",
      "outputs": [],
      "stateMutability": "nonpayable",
      "type": "function"
    },
    {
      "inputs": [
        {
          "components": [
            {
              "internalType": "bool",
              "name": "isOrderAsk",
              "type": "bool"
            },
            {
              "internalType": "address",
              "name": "signer",
              "type": "address"
            },
            {
              "internalType": "address",
              "name": "collection",
              "type": "address"
            },
            {
              "internalType": "uint256",
              "name": "price",
              "type": "uint256"
            },
            {
              "internalType": "uint256",
              "name": "tokenId",
              "type": "uint256"
            },
            {
              "internalType": "uint256",
              "name": "amount",
              "type": "uint256"
            },
            {
              "internalType": "address",
              "name": "currency",
              "type": "address"
            },
            {
              "internalType": "uint256",
              "name": "startTime",
              "type": "uint256"
            },
            {
              "internalType": "uint256",
              "name": "endTime",
              "type": "uint256"
            },
            {
              "internalType": "address",
              "name": "underlyingPriceFeed",
              "type": "address"
            },
            {
              "internalType": "uint256",
              "name": "underlyingPriceTreshold",
              "type": "uint256"
            }
          ],
          "internalType": "struct OrderTypes.MakerOrder",
          "name": "makerBid",
          "type": "tuple"
        }
      ],
      "name": "createMakerBid",
      "outputs": [],
      "stateMutability": "nonpayable",
      "type": "function"
    },
    {
      "inputs": [
        {
          "internalType": "address",
          "name": "collection",
          "type": "address"
        },
        {
          "internalType": "uint256",
          "name": "id",
          "type": "uint256"
        }
      ],
      "name": "getMakerAsk",
      "outputs": [
        {
          "components": [
            {
              "internalType": "bool",
              "name": "isOrderAsk",
              "type": "bool"
            },
            {
              "internalType": "address",
              "name": "signer",
              "type": "address"
            },
            {
              "internalType": "address",
              "name": "collection",
              "type": "address"
            },
            {
              "internalType": "uint256",
              "name": "price",
              "type": "uint256"
            },
            {
              "internalType": "uint256",
              "name": "tokenId",
              "type": "uint256"
            },
            {
              "internalType": "uint256",
              "name": "amount",
              "type": "uint256"
            },
            {
              "internalType": "address",
              "name": "currency",
              "type": "address"
            },
            {
              "internalType": "uint256",
              "name": "startTime",
              "type": "uint256"
            },
            {
              "internalType": "uint256",
              "name": "endTime",
              "type": "uint256"
            },
            {
              "internalType": "address",
              "name": "underlyingPriceFeed",
              "type": "address"
            },
            {
              "internalType": "uint256",
              "name": "underlyingPriceTreshold",
              "type": "uint256"
            }
          ],
          "internalType": "struct OrderTypes.MakerOrder",
          "name": "",
          "type": "tuple"
        }
      ],
      "stateMutability": "view",
      "type": "function"
    },
    {
      "inputs": [
        {
          "internalType": "address",
          "name": "collection",
          "type": "address"
        },
        {
          "internalType": "uint256",
          "name": "id",
          "type": "uint256"
        },
        {
          "internalType": "address",
          "name": "maker",
          "type": "address"
        }
      ],
      "name": "getMakerBid",
      "outputs": [
        {
          "components": [
            {
              "internalType": "bool",
              "name": "isOrderAsk",
              "type": "bool"
            },
            {
              "internalType": "address",
              "name": "signer",
              "type": "address"
            },
            {
              "internalType": "address",
              "name": "collection",
              "type": "address"
            },
            {
              "internalType": "uint256",
              "name": "price",
              "type": "uint256"
            },
            {
              "internalType": "uint256",
              "name": "tokenId",
              "type": "uint256"
            },
            {
              "internalType": "uint256",
              "name": "amount",
              "type": "uint256"
            },
            {
              "internalType": "address",
              "name": "currency",
              "type": "address"
            },
            {
              "internalType": "uint256",
              "name": "startTime",
              "type": "uint256"
            },
            {
              "internalType": "uint256",
              "name": "endTime",
              "type": "uint256"
            },
            {
              "internalType": "address",
              "name": "underlyingPriceFeed",
              "type": "address"
            },
            {
              "internalType": "uint256",
              "name": "underlyingPriceTreshold",
              "type": "uint256"
            }
          ],
          "internalType": "struct OrderTypes.MakerOrder",
          "name": "",
          "type": "tuple"
        }
      ],
      "stateMutability": "view",
      "type": "function"
    },
    {
      "inputs": [
        {
          "internalType": "address",
          "name": "",
          "type": "address"
        },
        {
          "internalType": "uint256",
          "name": "",
          "type": "uint256"
        }
      ],
      "name": "makerAskByNFT",
      "outputs": [
        {
          "internalType": "bool",
          "name": "isOrderAsk",
          "type": "bool"
        },
        {
          "internalType": "address",
          "name": "signer",
          "type": "address"
        },
        {
          "internalType": "address",
          "name": "collection",
          "type": "address"
        },
        {
          "internalType": "uint256",
          "name": "price",
          "type": "uint256"
        },
        {
          "internalType": "uint256",
          "name": "tokenId",
          "type": "uint256"
        },
        {
          "internalType": "uint256",
          "name": "amount",
          "type": "uint256"
        },
        {
          "internalType": "address",
          "name": "currency",
          "type": "address"
        },
        {
          "internalType": "uint256",
          "name": "startTime",
          "type": "uint256"
        },
        {
          "internalType": "uint256",
          "name": "endTime",
          "type": "uint256"
        },
        {
          "internalType": "address",
          "name": "underlyingPriceFeed",
          "type": "address"
        },
        {
          "internalType": "uint256",
          "name": "underlyingPriceTreshold",
          "type": "uint256"
        }
      ],
      "stateMutability": "view",
      "type": "function"
    },
    {
      "inputs": [
        {
          "internalType": "address",
          "name": "",
          "type": "address"
        },
        {
          "internalType": "uint256",
          "name": "",
          "type": "uint256"
        },
        {
          "internalType": "address",
          "name": "",
          "type": "address"
        }
      ],
      "name": "makerBidByNFTAndMaker",
      "outputs": [
        {
          "internalType": "bool",
          "name": "isOrderAsk",
          "type": "bool"
        },
        {
          "internalType": "address",
          "name": "signer",
          "type": "address"
        },
        {
          "internalType": "address",
          "name": "collection",
          "type": "address"
        },
        {
          "internalType": "uint256",
          "name": "price",
          "type": "uint256"
        },
        {
          "internalType": "uint256",
          "name": "tokenId",
          "type": "uint256"
        },
        {
          "internalType": "uint256",
          "name": "amount",
          "type": "uint256"
        },
        {
          "internalType": "address",
          "name": "currency",
          "type": "address"
        },
        {
          "internalType": "uint256",
          "name": "startTime",
          "type": "uint256"
        },
        {
          "internalType": "uint256",
          "name": "endTime",
          "type": "uint256"
        },
        {
          "internalType": "address",
          "name": "underlyingPriceFeed",
          "type": "address"
        },
        {
          "internalType": "uint256",
          "name": "underlyingPriceTreshold",
          "type": "uint256"
        }
      ],
      "stateMutability": "view",
      "type": "function"
    },
    {
      "inputs": [
        {
          "components": [
            {
              "internalType": "bool",
              "name": "isOrderAsk",
              "type": "bool"
            },
            {
              "internalType": "address",
              "name": "taker",
              "type": "address"
            },
            {
              "internalType": "uint256",
              "name": "price",
              "type": "uint256"
            },
            {
              "internalType": "uint256",
              "name": "tokenId",
              "type": "uint256"
            }
          ],
          "internalType": "struct OrderTypes.TakerOrder",
          "name": "takerBid",
          "type": "tuple"
        },
        {
          "components": [
            {
              "internalType": "bool",
              "name": "isOrderAsk",
              "type": "bool"
            },
            {
              "internalType": "address",
              "name": "signer",
              "type": "address"
            },
            {
              "internalType": "address",
              "name": "collection",
              "type": "address"
            },
            {
              "internalType": "uint256",
              "name": "price",
              "type": "uint256"
            },
            {
              "internalType": "uint256",
              "name": "tokenId",
              "type": "uint256"
            },
            {
              "internalType": "uint256",
              "name": "amount",
              "type": "uint256"
            },
            {
              "internalType": "address",
              "name": "currency",
              "type": "address"
            },
            {
              "internalType": "uint256",
              "name": "startTime",
              "type": "uint256"
            },
            {
              "internalType": "uint256",
              "name": "endTime",
              "type": "uint256"
            },
            {
              "internalType": "address",
              "name": "underlyingPriceFeed",
              "type": "address"
            },
            {
              "internalType": "uint256",
              "name": "underlyingPriceTreshold",
              "type": "uint256"
            }
          ],
          "internalType": "struct OrderTypes.MakerOrder",
          "name": "makerAsk",
          "type": "tuple"
        }
      ],
      "name": "matchAskWithTakerBid",
      "outputs": [],
      "stateMutability": "nonpayable",
      "type": "function"
    },
    {
      "inputs": [
        {
          "components": [
            {
              "internalType": "bool",
              "name": "isOrderAsk",
              "type": "bool"
            },
            {
              "internalType": "address",
              "name": "taker",
              "type": "address"
            },
            {
              "internalType": "uint256",
              "name": "price",
              "type": "uint256"
            },
            {
              "internalType": "uint256",
              "name": "tokenId",
              "type": "uint256"
            }
          ],
          "internalType": "struct OrderTypes.TakerOrder",
          "name": "takerAsk",
          "type": "tuple"
        },
        {
          "components": [
            {
              "internalType": "bool",
              "name": "isOrderAsk",
              "type": "bool"
            },
            {
              "internalType": "address",
              "name": "signer",
              "type": "address"
            },
            {
              "internalType": "address",
              "name": "collection",
              "type": "address"
            },
            {
              "internalType": "uint256",
              "name": "price",
              "type": "uint256"
            },
            {
              "internalType": "uint256",
              "name": "tokenId",
              "type": "uint256"
            },
            {
              "internalType": "uint256",
              "name": "amount",
              "type": "uint256"
            },
            {
              "internalType": "address",
              "name": "currency",
              "type": "address"
            },
            {
              "internalType": "uint256",
              "name": "startTime",
              "type": "uint256"
            },
            {
              "internalType": "uint256",
              "name": "endTime",
              "type": "uint256"
            },
            {
              "internalType": "address",
              "name": "underlyingPriceFeed",
              "type": "address"
            },
            {
              "internalType": "uint256",
              "name": "underlyingPriceTreshold",
              "type": "uint256"
            }
          ],
          "internalType": "struct OrderTypes.MakerOrder",
          "name": "makerBid",
          "type": "tuple"
        }
      ],
      "name": "matchBidWithTakerAsk",
      "outputs": [],
      "stateMutability": "nonpayable",
      "type": "function"
    },
    {
      "inputs": [],
      "name": "transferSelectorNFT",
      "outputs": [
        {
          "internalType": "contract ITransferSelectorNFT",
          "name": "",
          "type": "address"
        }
      ],
      "stateMutability": "view",
      "type": "function"
    },
    {
      "inputs": [
        {
          "internalType": "address",
          "name": "_transferSelectorNFT",
          "type": "address"
        }
      ],
      "name": "updateTransferSelectorNFT",
      "outputs": [],
      "stateMutability": "nonpayable",
      "type": "function"
    }
  ],
  "bytecode": {
    "object": "0x60a060405234801561001057600080fd5b50604051611b07380380611b0783398101604081905261002f91610040565b6001600160a01b0316608052610070565b60006020828403121561005257600080fd5b81516001600160a01b038116811461006957600080fd5b9392505050565b608051611a7d61008a600039600060b30152611a7d6000f3fe608060405234801561001057600080fd5b50600436106100a95760003560e01c806383129f171161007157806383129f171461014d578063abcdc69814610232578063bc8c4acb14610245578063d22b931514610258578063f08541bb146102d1578063f75ff53f146102e457600080fd5b806305881cc1146100ae57806333f831a1146100f257806352f7ddda146101075780635ae153d51461011a5780635e14f68e1461013a575b600080fd5b6100d57f000000000000000000000000000000000000000000000000000000000000000081565b6040516001600160a01b0390911681526020015b60405180910390f35b61010561010036600461161f565b6102f7565b005b61010561011536600461165c565b6107a3565b61012d610128366004611698565b6109ce565b6040516100e991906116da565b6000546100d5906001600160a01b031681565b6101cd61015b366004611698565b6002602081815260009485526040808620825293855283852090529083529120805460018201549282015460038301546004840154600585015460068601546007870154600888015460099098015460ff8816996001600160a01b03610100909904891699908916989485169416908b565b604080519b15158c526001600160a01b039a8b1660208d0152988a16988b019890985260608a0196909652608089019490945260a0880192909252851660c087015260e0860152610100850152909116610120830152610140820152610160016100e9565b61010561024036600461165c565b610a94565b61012d61025336600461178f565b610bfe565b6101cd61026636600461178f565b60016020818152600093845260408085209091529183529120805491810154600282015460038301546004840154600585015460068601546007870154600888015460099098015460ff8a16996001600160a01b03610100909104811699988116989481169416908b565b6101056102df36600461161f565b610cb7565b6101056102f23660046117bb565b611075565b61030460208201826117e6565b158015610319575061031960208301836117e6565b61035f5760405162461bcd60e51b81526020600482015260126024820152714f726465723a2057726f6e6720736964657360701b60448201526064015b60405180910390fd5b61036f60408301602084016117bb565b6001600160a01b0316336001600160a01b0316146103cf5760405162461bcd60e51b815260206004820152601f60248201527f4f726465723a2054616b6572206d757374206265207468652073656e646572006044820152606401610356565b60008060006103de85856110ed565b925092509250826104315760405162461bcd60e51b815260206004820152601b60248201527f53747261746567793a20457865637574696f6e20696e76616c696400000000006044820152606401610356565b6000610445610140860161012087016117bb565b6001600160a01b031663feaf968c6040518163ffffffff1660e01b815260040160a060405180830381865afa158015610482573d6000803e3d6000fd5b505050506040513d601f19601f820116820180604052508101906104a69190611822565b5050509150508461014001358112156105015760405162461bcd60e51b815260206004820152601860248201527f7072696365206e6f742061626f76652074726573686f6c6400000000000000006044820152606401610356565b61052c61051460608701604088016117bb565b336105256040890160208a016117bb565b8686611146565b61057a61053f60608701604088016117bb565b8461055060e0890160c08a016117bb565b61056060408a0160208b016117bb565b61057060408c0160208d016117bb565b8b604001356112a2565b8261058b60408701602088016117bb565b6001600160a01b03166105a46040890160208a016117bb565b6001600160a01b03167f267a20459dd4afc0b39d3cfde6891a38036ab249eab1ac9a0bbc01740238422b6105de60e08a0160c08b016117bb565b6105ee60608b0160408c016117bb565b604080516001600160a01b0393841681529290911660208301528181018890528b0135606082015260800160405180910390a46001600061063560608801604089016117bb565b6001600160a01b03168152602080820192909252604090810160009081206080890135825290925280822080546001600160a81b03191681556001810180546001600160a01b031990811690915560028083018590556003830185905560048301859055600583018054831690556006830185905560078301859055600883018054909216909155600990910183905591906106d790606089019089016117bb565b6001600160a01b03166001600160a01b03168152602001908152602001600020600086608001358152602001908152602001600020600086602001602081019061072191906117bb565b6001600160a01b031681526020810191909152604001600090812080546001600160a81b03191681556001810180546001600160a01b0319908116909155600282018390556003820183905560048201839055600582018054821690556006820183905560078201839055600882018054909116905560090155505050505050565b6107b060208201826117e6565b156107f25760405162461bcd60e51b81526020600482015260126024820152711bdc99195c881a5cc81b9bdd081848189a5960721b6044820152606401610356565b61080260408201602083016117bb565b6001600160a01b0316336001600160a01b03161461085d5760405162461bcd60e51b815260206004820152601860248201527736b0b5b2b91036bab9ba103132903a34329039b2b73232b960411b6044820152606401610356565b806002600061087260608401604085016117bb565b6001600160a01b03166001600160a01b0316815260200190815260200160002060008360800135815260200190815260200160002060008360200160208101906108bc91906117bb565b6001600160a01b0316815260208101919091526040016000206108df82826118b2565b505060808101356108f660608301604084016117bb565b6001600160a01b031661090f60408401602085016117bb565b6001600160a01b03167f3f2494f012b7b3ea5e1c55200159a9cd35c16aa79beef58ca4dedce86945563961094660208601866117e6565b61095660e0870160c088016117bb565b60a0870135606088013560e08901356101008a013561097d6101408c016101208d016117bb565b6040805197151588526001600160a01b0396871660208901528701949094526060860192909252608085015260a08401521660c082015261014086013560e08201526101000160405180910390a450565b6109d6611586565b506001600160a01b03808416600090815260026020818152604080842087855282528084208686168552825292839020835161016081018552815460ff81161515825261010090819004871693820193909352600182015486169481019490945291820154606084015260038201546080840152600482015460a08401526005820154841660c0840152600682015460e084015260078201549083015260088101549092166101208201526009909101546101408201529392505050565b610aa160208201826117e6565b610ae35760405162461bcd60e51b81526020600482015260136024820152726f72646572206973206e6f7420616e2061736b60681b6044820152606401610356565b610af360408201602083016117bb565b6001600160a01b0316336001600160a01b031614610b4e5760405162461bcd60e51b815260206004820152601860248201527736b0b5b2b91036bab9ba103132903a34329039b2b73232b960411b6044820152606401610356565b8060016000610b6360608401604085016117bb565b6001600160a01b0316815260208082019290925260409081016000908120608086013582529092529020610b9782826118b2565b50506080810135610bae60608301604084016117bb565b6001600160a01b0316610bc760408401602085016117bb565b6001600160a01b03167fff973daa1bfe133dc296bea6d0c2d4c25d823c4407b68e5947a78758a478c29c61094660208601866117e6565b610c06611586565b506001600160a01b038083166000908152600160208181526040808420868552825292839020835161016081018552815460ff81161515825261010090819004871693820193909352928101548516938301939093526002830154606083015260038301546080830152600483015460a08301526005830154841660c0830152600683015460e083015260078301549082015260088201549092166101208301526009015461014082015292915050565b610cc460208201826117e6565b8015610cda5750610cd860208301836117e6565b155b610d1b5760405162461bcd60e51b81526020600482015260126024820152714f726465723a2057726f6e6720736964657360701b6044820152606401610356565b610d2b60408301602084016117bb565b6001600160a01b0316336001600160a01b031614610d8b5760405162461bcd60e51b815260206004820152601f60248201527f4f726465723a2054616b6572206d757374206265207468652073656e646572006044820152606401610356565b6000806000610d9a85856110ed565b92509250925082610ded5760405162461bcd60e51b815260206004820152601b60248201527f53747261746567793a20457865637574696f6e20696e76616c696400000000006044820152606401610356565b6000610e01610140860161012087016117bb565b6001600160a01b031663feaf968c6040518163ffffffff1660e01b815260040160a060405180830381865afa158015610e3e573d6000803e3d6000fd5b505050506040513d601f19601f82011682018060405250810190610e629190611822565b505050915050846101400135811315610ebd5760405162461bcd60e51b815260206004820152601860248201527f7072696365206e6f742062656c6f772074726573686f6c6400000000000000006044820152606401610356565b610ef2610ed060608701604088016117bb565b84610ee160e0890160c08a016117bb565b3361057060408b0160208c016117bb565b610f25610f0560608701604088016117bb565b610f1560408801602089016117bb565b61052560408a0160208b016117bb565b82610f3660408701602088016117bb565b6001600160a01b0316610f4f6040890160208a016117bb565b6001600160a01b03167f9133721a225ce67dcaddfa317d14ca6bbbf394f93fb239767b412d653075af35610f8960e08a0160c08b016117bb565b610f9960608b0160408c016117bb565b604080516001600160a01b0393841681529290911660208301528181018890528b0135606082015260800160405180910390a460016000610fe060608801604089016117bb565b6001600160a01b0316815260208082019290925260409081016000908120608090980135815296909152852080546001600160a81b03191681556001810180546001600160a01b03199081169091556002820187905560038201879055600482018790556005820180548216905560068201879055600782018790556008820180549091169055600901949094555050505050565b6001600160a01b0381166110cb5760405162461bcd60e51b815260206004820152601d60248201527f4f776e65723a2043616e6e6f74206265206e756c6c20616464726573730000006044820152606401610356565b600080546001600160a01b0319166001600160a01b0392909216919091179055565b600080600084604001358460600135148015611110575084606001358460800135145b80156111205750428460e0013511155b801561113157504284610100013510155b92505050608082013560a08301359250925092565b6000805460405163cc15949360e01b81526001600160a01b0388811660048301529091169063cc15949390602401602060405180830381865afa158015611191573d6000803e3d6000fd5b505050506040513d601f19601f820116820180604052508101906111b59190611992565b90506001600160a01b0381166112215760405162461bcd60e51b815260206004820152602b60248201527f5472616e736665723a204e6f204e4654207472616e73666572206d616e61676560448201526a7220617661696c61626c6560a81b6064820152608401610356565b6040516333f2fa9f60e01b81526001600160a01b0387811660048301528681166024830152858116604483015260648201859052608482018490528216906333f2fa9f9060a401600060405180830381600087803b15801561128257600080fd5b505af1158015611296573d6000803e3d6000fd5b50505050505050505050565b6112b76001600160a01b0385168484846112bf565b505050505050565b604080516001600160a01b0385811660248301528416604482015260648082018490528251808303909101815260849091019091526020810180516001600160e01b03166323b872dd60e01b17905261131990859061131f565b50505050565b6000611374826040518060400160405280602081526020017f5361666545524332303a206c6f772d6c6576656c2063616c6c206661696c6564815250856001600160a01b03166113f69092919063ffffffff16565b8051909150156113f1578080602001905181019061139291906119af565b6113f15760405162461bcd60e51b815260206004820152602a60248201527f5361666545524332303a204552433230206f7065726174696f6e20646964206e6044820152691bdd081cdd58d8d9595960b21b6064820152608401610356565b505050565b6060611405848460008561140d565b949350505050565b60608247101561146e5760405162461bcd60e51b815260206004820152602660248201527f416464726573733a20696e73756666696369656e742062616c616e636520666f6044820152651c8818d85b1b60d21b6064820152608401610356565b600080866001600160a01b0316858760405161148a91906119f8565b60006040518083038185875af1925050503d80600081146114c7576040519150601f19603f3d011682016040523d82523d6000602084013e6114cc565b606091505b50915091506114dd878383876114e8565b979650505050505050565b60608315611557578251600003611550576001600160a01b0385163b6115505760405162461bcd60e51b815260206004820152601d60248201527f416464726573733a2063616c6c20746f206e6f6e2d636f6e74726163740000006044820152606401610356565b5081611405565b611405838381511561156c5781518083602001fd5b8060405162461bcd60e51b81526004016103569190611a14565b60405180610160016040528060001515815260200160006001600160a01b0316815260200160006001600160a01b0316815260200160008152602001600081526020016000815260200160006001600160a01b03168152602001600081526020016000815260200160006001600160a01b03168152602001600081525090565b6000610160828403121561161957600080fd5b50919050565b6000808284036101e081121561163457600080fd5b608081121561164257600080fd5b508291506116538460808501611606565b90509250929050565b6000610160828403121561166f57600080fd5b6116798383611606565b9392505050565b6001600160a01b038116811461169557600080fd5b50565b6000806000606084860312156116ad57600080fd5b83356116b881611680565b92506020840135915060408401356116cf81611680565b809150509250925092565b815115158152610160810160208301516116ff60208401826001600160a01b03169052565b50604083015161171a60408401826001600160a01b03169052565b50606083015160608301526080830151608083015260a083015160a083015260c083015161175360c08401826001600160a01b03169052565b5060e083810151908301526101008084015190830152610120808401516001600160a01b03811682850152505061014092830151919092015290565b600080604083850312156117a257600080fd5b82356117ad81611680565b946020939093013593505050565b6000602082840312156117cd57600080fd5b813561167981611680565b801515811461169557600080fd5b6000602082840312156117f857600080fd5b8135611679816117d8565b805169ffffffffffffffffffff8116811461181d57600080fd5b919050565b600080600080600060a0868803121561183a57600080fd5b61184386611803565b945060208601519350604086015192506060860151915061186660808701611803565b90509295509295909350565b6000813561187f816117d8565b92915050565b6000813561187f81611680565b80546001600160a01b0319166001600160a01b0392909216919091179055565b6118d26118be83611872565b825490151560ff1660ff1991909116178255565b6119076118e160208401611885565b828054610100600160a81b03191660089290921b610100600160a81b0316919091179055565b61191f61191660408401611885565b60018301611892565b606082013560028201556080820135600382015560a0820135600482015561195561194c60c08401611885565b60058301611892565b60e08201356006820155610100820135600782015561198361197a6101208401611885565b60088301611892565b61014082013560098201555050565b6000602082840312156119a457600080fd5b815161167981611680565b6000602082840312156119c157600080fd5b8151611679816117d8565b60005b838110156119e75781810151838201526020016119cf565b838111156113195750506000910152565b60008251611a0a8184602087016119cc565b9190910192915050565b6020815260008251806020840152611a338160408501602087016119cc565b601f01601f1916919091016040019291505056fea264697066735822122092eb2bfa41f2447e9b96398b2d7a0065bc7ac61f5ae8c10f666b582a47f598e864736f6c634300080d0033",
    "linkReferences": {}
  }
}