{
  "abi": [
    {
      "inputs": [],
      "stateMutability": "nonpayable",
      "type": "constructor"
    },
    {
      "anonymous": false,
      "inputs": [
        {
          "indexed": true,
          "internalType": "address",
          "name": "owner",
          "type": "address"
        },
        {
          "indexed": true,
          "internalType": "address",
          "name": "approved",
          "type": "address"
        },
        {
          "indexed": true,
          "internalType": "uint256",
          "name": "tokenId",
          "type": "uint256"
        }
      ],
      "name": "Approval",
      "type": "event"
    },
    {
      "anonymous": false,
      "inputs": [
        {
          "indexed": true,
          "internalType": "address",
          "name": "owner",
          "type": "address"
        },
        {
          "indexed": true,
          "internalType": "address",
          "name": "operator",
          "type": "address"
        },
        {
          "indexed": false,
          "internalType": "bool",
          "name": "approved",
          "type": "bool"
        }
      ],
      "name": "ApprovalForAll",
      "type": "event"
    },
    {
      "anonymous": false,
      "inputs": [
        {
          "indexed": true,
          "internalType": "address",
          "name": "from",
          "type": "address"
        },
        {
          "indexed": true,
          "internalType": "address",
          "name": "to",
          "type": "address"
        },
        {
          "indexed": true,
          "internalType": "uint256",
          "name": "tokenId",
          "type": "uint256"
        }
      ],
      "name": "Transfer",
      "type": "event"
    },
    {
      "inputs": [
        {
          "internalType": "address",
          "name": "to",
          "type": "address"
        },
        {
          "internalType": "uint256",
          "name": "tokenId",
          "type": "uint256"
        }
      ],
      "name": "approve",
      "outputs": [],
      "stateMutability": "nonpayable",
      "type": "function"
    },
    {
      "inputs": [
        {
          "internalType": "address",
          "name": "owner",
          "type": "address"
        }
      ],
      "name": "balanceOf",
      "outputs": [
        {
          "internalType": "uint256",
          "name": "",
          "type": "uint256"
        }
      ],
      "stateMutability": "view",
      "type": "function"
    },
    {
      "inputs": [
        {
          "internalType": "address",
          "name": "priceFeed",
          "type": "address"
        },
        {
          "internalType": "int256",
          "name": "strikePrice",
          "type": "int256"
        },
        {
          "internalType": "uint256",
          "name": "expiry",
          "type": "uint256"
        },
        {
          "internalType": "uint256",
          "name": "collateral",
          "type": "uint256"
        }
      ],
      "name": "createMarket",
      "outputs": [
        {
          "internalType": "uint256",
          "name": "",
          "type": "uint256"
        },
        {
          "internalType": "uint256",
          "name": "",
          "type": "uint256"
        }
      ],
      "stateMutability": "payable",
      "type": "function"
    },
    {
      "inputs": [],
      "name": "currentMarketId",
      "outputs": [
        {
          "internalType": "uint256",
          "name": "",
          "type": "uint256"
        }
      ],
      "stateMutability": "view",
      "type": "function"
    },
    {
      "inputs": [
        {
          "internalType": "uint256",
          "name": "id",
          "type": "uint256"
        }
      ],
      "name": "exercise",
      "outputs": [],
      "stateMutability": "nonpayable",
      "type": "function"
    },
    {
      "inputs": [
        {
          "internalType": "uint256",
          "name": "tokenId",
          "type": "uint256"
        }
      ],
      "name": "getApproved",
      "outputs": [
        {
          "internalType": "address",
          "name": "",
          "type": "address"
        }
      ],
      "stateMutability": "view",
      "type": "function"
    },
    {
      "inputs": [
        {
          "internalType": "uint256",
          "name": "id",
          "type": "uint256"
        }
      ],
      "name": "getMarket",
      "outputs": [
        {
          "components": [
            {
              "internalType": "address",
              "name": "priceFeed",
              "type": "address"
            },
            {
              "internalType": "int256",
              "name": "strikePrice",
              "type": "int256"
            },
            {
              "internalType": "uint256",
              "name": "expiry",
              "type": "uint256"
            },
            {
              "internalType": "uint256",
              "name": "collateral",
              "type": "uint256"
            },
            {
              "internalType": "bool",
              "name": "over",
              "type": "bool"
            }
          ],
          "internalType": "struct PredictionMarket.Market",
          "name": "",
          "type": "tuple"
        }
      ],
      "stateMutability": "view",
      "type": "function"
    },
    {
      "inputs": [
        {
          "internalType": "address",
          "name": "owner",
          "type": "address"
        },
        {
          "internalType": "address",
          "name": "operator",
          "type": "address"
        }
      ],
      "name": "isApprovedForAll",
      "outputs": [
        {
          "internalType": "bool",
          "name": "",
          "type": "bool"
        }
      ],
      "stateMutability": "view",
      "type": "function"
    },
    {
      "inputs": [
        {
          "internalType": "uint256",
          "name": "",
          "type": "uint256"
        }
      ],
      "name": "marketById",
      "outputs": [
        {
          "internalType": "address",
          "name": "priceFeed",
          "type": "address"
        },
        {
          "internalType": "int256",
          "name": "strikePrice",
          "type": "int256"
        },
        {
          "internalType": "uint256",
          "name": "expiry",
          "type": "uint256"
        },
        {
          "internalType": "uint256",
          "name": "collateral",
          "type": "uint256"
        },
        {
          "internalType": "bool",
          "name": "over",
          "type": "bool"
        }
      ],
      "stateMutability": "view",
      "type": "function"
    },
    {
      "inputs": [],
      "name": "name",
      "outputs": [
        {
          "internalType": "string",
          "name": "",
          "type": "string"
        }
      ],
      "stateMutability": "view",
      "type": "function"
    },
    {
      "inputs": [
        {
          "internalType": "uint256",
          "name": "tokenId",
          "type": "uint256"
        }
      ],
      "name": "ownerOf",
      "outputs": [
        {
          "internalType": "address",
          "name": "",
          "type": "address"
        }
      ],
      "stateMutability": "view",
      "type": "function"
    },
    {
      "inputs": [
        {
          "internalType": "address",
          "name": "from",
          "type": "address"
        },
        {
          "internalType": "address",
          "name": "to",
          "type": "address"
        },
        {
          "internalType": "uint256",
          "name": "tokenId",
          "type": "uint256"
        }
      ],
      "name": "safeTransferFrom",
      "outputs": [],
      "stateMutability": "nonpayable",
      "type": "function"
    },
    {
      "inputs": [
        {
          "internalType": "address",
          "name": "from",
          "type": "address"
        },
        {
          "internalType": "address",
          "name": "to",
          "type": "address"
        },
        {
          "internalType": "uint256",
          "name": "tokenId",
          "type": "uint256"
        },
        {
          "internalType": "bytes",
          "name": "data",
          "type": "bytes"
        }
      ],
      "name": "safeTransferFrom",
      "outputs": [],
      "stateMutability": "nonpayable",
      "type": "function"
    },
    {
      "inputs": [
        {
          "internalType": "address",
          "name": "operator",
          "type": "address"
        },
        {
          "internalType": "bool",
          "name": "approved",
          "type": "bool"
        }
      ],
      "name": "setApprovalForAll",
      "outputs": [],
      "stateMutability": "nonpayable",
      "type": "function"
    },
    {
      "inputs": [
        {
          "internalType": "bytes4",
          "name": "interfaceId",
          "type": "bytes4"
        }
      ],
      "name": "supportsInterface",
      "outputs": [
        {
          "internalType": "bool",
          "name": "",
          "type": "bool"
        }
      ],
      "stateMutability": "view",
      "type": "function"
    },
    {
      "inputs": [],
      "name": "symbol",
      "outputs": [
        {
          "internalType": "string",
          "name": "",
          "type": "string"
        }
      ],
      "stateMutability": "view",
      "type": "function"
    },
    {
      "inputs": [
        {
          "internalType": "uint256",
          "name": "tokenId",
          "type": "uint256"
        }
      ],
      "name": "tokenURI",
      "outputs": [
        {
          "internalType": "string",
          "name": "",
          "type": "string"
        }
      ],
      "stateMutability": "view",
      "type": "function"
    },
    {
      "inputs": [
        {
          "internalType": "address",
          "name": "from",
          "type": "address"
        },
        {
          "internalType": "address",
          "name": "to",
          "type": "address"
        },
        {
          "internalType": "uint256",
          "name": "tokenId",
          "type": "uint256"
        }
      ],
      "name": "transferFrom",
      "outputs": [],
      "stateMutability": "nonpayable",
      "type": "function"
    }
  ],
  "bytecode": {
    "object": "0x61018060405260dc608081815290620025b560a03980516200002a91600991602090910190620000db565b50604051806080016040528060538152602001620026916053913980516200005b91600a91602090910190620000db565b503480156200006957600080fd5b50604080518082018252600a8152691c0c9c1c1c99591a58dd60b21b60208083019182528351808501909452600384526207032760ec1b908401528151919291620000b791600091620000db565b508051620000cd906001906020840190620000db565b5050600060085550620001bd565b828054620000e99062000181565b90600052602060002090601f0160209004810192826200010d576000855562000158565b82601f106200012857805160ff191683800117855562000158565b8280016001018555821562000158579182015b82811115620001585782518255916020019190600101906200013b565b50620001669291506200016a565b5090565b5b808211156200016657600081556001016200016b565b600181811c908216806200019657607f821691505b602082108103620001b757634e487b7160e01b600052602260045260246000fd5b50919050565b6123e880620001cd6000396000f3fe6080604052600436106101095760003560e01c806370a0823111610095578063b88d4fde11610064578063b88d4fde146102e0578063bc37bf5514610300578063c87b56dd1461038b578063e985e9c5146103ab578063eb44fdd3146103f457600080fd5b806370a082311461026b57806395d89b411461028b578063a22cb465146102a0578063b07f0a41146102c057600080fd5b806323b872dd116100dc57806323b872dd146101bf57806337c3f2f9146101df57806342842e0e146102035780636352211e146102235780636f0691bf1461024357600080fd5b806301ffc9a71461010e57806306fdde0314610143578063081812fc14610165578063095ea7b31461019d575b600080fd5b34801561011a57600080fd5b5061012e610129366004611b47565b61045c565b60405190151581526020015b60405180910390f35b34801561014f57600080fd5b506101586104ae565b60405161013a9190611bbc565b34801561017157600080fd5b50610185610180366004611bcf565b610540565b6040516001600160a01b03909116815260200161013a565b3480156101a957600080fd5b506101bd6101b8366004611c04565b610567565b005b3480156101cb57600080fd5b506101bd6101da366004611c2e565b610681565b3480156101eb57600080fd5b506101f560085481565b60405190815260200161013a565b34801561020f57600080fd5b506101bd61021e366004611c2e565b6106b2565b34801561022f57600080fd5b5061018561023e366004611bcf565b6106cd565b610256610251366004611c6a565b61072d565b6040805192835260208301919091520161013a565b34801561027757600080fd5b506101f5610286366004611ca3565b610964565b34801561029757600080fd5b506101586109ea565b3480156102ac57600080fd5b506101bd6102bb366004611cbe565b6109f9565b3480156102cc57600080fd5b506101bd6102db366004611bcf565b610a08565b3480156102ec57600080fd5b506101bd6102fb366004611d10565b610c90565b34801561030c57600080fd5b5061035761031b366004611bcf565b600760205260009081526040902080546001820154600283015460038401546004909401546001600160a01b0390931693919290919060ff1685565b604080516001600160a01b03909616865260208601949094529284019190915260608301521515608082015260a00161013a565b34801561039757600080fd5b506101586103a6366004611bcf565b610cc2565b3480156103b757600080fd5b5061012e6103c6366004611dec565b6001600160a01b03918216600090815260056020908152604080832093909416825291909152205460ff1690565b34801561040057600080fd5b5061041461040f366004611bcf565b610dd2565b60405161013a919081516001600160a01b0316815260208083015190820152604080830151908201526060808301519082015260809182015115159181019190915260a00190565b60006001600160e01b031982166380ac58cd60e01b148061048d57506001600160e01b03198216635b5e139f60e01b145b806104a857506301ffc9a760e01b6001600160e01b03198316145b92915050565b6060600080546104bd90611e1f565b80601f01602080910402602001604051908101604052809291908181526020018280546104e990611e1f565b80156105365780601f1061050b57610100808354040283529160200191610536565b820191906000526020600020905b81548152906001019060200180831161051957829003601f168201915b5050505050905090565b600061054b82610e6c565b506000908152600460205260409020546001600160a01b031690565b6000610572826106cd565b9050806001600160a01b0316836001600160a01b0316036105e45760405162461bcd60e51b815260206004820152602160248201527f4552433732313a20617070726f76616c20746f2063757272656e74206f776e656044820152603960f91b60648201526084015b60405180910390fd5b336001600160a01b0382161480610600575061060081336103c6565b6106725760405162461bcd60e51b815260206004820152603e60248201527f4552433732313a20617070726f76652063616c6c6572206973206e6f7420746f60448201527f6b656e206f776e6572206e6f7220617070726f76656420666f7220616c6c000060648201526084016105db565b61067c8383610ece565b505050565b61068b3382610f3c565b6106a75760405162461bcd60e51b81526004016105db90611e59565b61067c838383610fba565b61067c83838360405180602001604052806000815250610c90565b6000818152600260205260408120546001600160a01b0316806104a85760405162461bcd60e51b8152602060048201526018602482015277115490cdcc8c4e881a5b9d985b1a59081d1bdad95b88125160421b60448201526064016105db565b60008034831461077f5760405162461bcd60e51b815260206004820152601760248201527f77726f6e6720636f6c6c61746572616c20616d6f756e7400000000000000000060448201526064016105db565b60006040518060a00160405280886001600160a01b0316815260200187815260200186815260200185815260200160011515815250905060006040518060a00160405280896001600160a01b031681526020018881526020018781526020018681526020016000151581525090508160076000600854815260200190815260200160002060008201518160000160006101000a8154816001600160a01b0302191690836001600160a01b0316021790555060208201518160010155604082015181600201556060820151816003015560808201518160040160006101000a81548160ff02191690831515021790555090505061087d33600854611165565b600880546108a391600061089083611ebd565b9190505561089e600161117f565b611297565b60088054600090815260076020908152604091829020845181546001600160a01b0319166001600160a01b039091161781559084015160018201559083015160028201556060830151600382015560808301516004909101805460ff191691151591909117905554610916903390611165565b6008805461093791600061092983611ebd565b9190505561089e600061117f565b60026008546109469190611ed6565b60016008546109559190611ed6565b93509350505094509492505050565b60006001600160a01b0382166109ce5760405162461bcd60e51b815260206004820152602960248201527f4552433732313a2061646472657373207a65726f206973206e6f7420612076616044820152683634b21037bbb732b960b91b60648201526084016105db565b506001600160a01b031660009081526003602052604090205490565b6060600180546104bd90611e1f565b610a04338383611331565b5050565b33610a12826106cd565b6001600160a01b031614610a785760405162461bcd60e51b815260206004820152602760248201527f50726564696374696f6e4d61726b65743a206e6f742074686520636f727265636044820152663a1037bbb732b960c91b60648201526084016105db565b600081815260076020908152604091829020825160a08101845281546001600160a01b031681526001820154928101929092526002810154928201839052600381015460608301526004015460ff161515608082015290421015610b2a5760405162461bcd60e51b815260206004820152602360248201527f50726564696374696f6e4d61726b65743a206e6f7420617420657870697279206044820152621e595d60ea1b60648201526084016105db565b600081600001516001600160a01b031663feaf968c6040518163ffffffff1660e01b815260040160a060405180830381865afa158015610b6e573d6000803e3d6000fd5b505050506040513d601f19601f82011682018060405250810190610b929190611f07565b505050915050816080015115610bcb578160200151811215610bc65760405162461bcd60e51b81526004016105db90611f57565b610bee565b81602001518112610bee5760405162461bcd60e51b81526004016105db90611f57565b610bf7836113ff565b606082015160405160009133918381818185875af1925050503d8060008114610c3c576040519150601f19603f3d011682016040523d82523d6000602084013e610c41565b606091505b5050905080610c8a5760405162461bcd60e51b81526020600482015260156024820152743330b4b632b21032ba3432b9103a3930b739b332b960591b60448201526064016105db565b50505050565b610c9a3383610f3c565b610cb65760405162461bcd60e51b81526004016105db90611e59565b610c8a8484848461143f565b6060610ccd82610e6c565b60008281526006602052604081208054610ce690611e1f565b80601f0160208091040260200160405190810160405280929190818152602001828054610d1290611e1f565b8015610d5f5780601f10610d3457610100808354040283529160200191610d5f565b820191906000526020600020905b815481529060010190602001808311610d4257829003601f168201915b505050505090506000610d7d60408051602081019091526000815290565b90508051600003610d8f575092915050565b815115610dc1578082604051602001610da9929190611fa4565b60405160208183030381529060405292505050919050565b610dca84611472565b949350505050565b610e0f6040518060a0016040528060006001600160a01b031681526020016000815260200160008152602001600081526020016000151581525090565b50600090815260076020908152604091829020825160a08101845281546001600160a01b031681526001820154928101929092526002810154928201929092526003820154606082015260049091015460ff161515608082015290565b6000818152600260205260409020546001600160a01b0316610ecb5760405162461bcd60e51b8152602060048201526018602482015277115490cdcc8c4e881a5b9d985b1a59081d1bdad95b88125160421b60448201526064016105db565b50565b600081815260046020526040902080546001600160a01b0319166001600160a01b0384169081179091558190610f03826106cd565b6001600160a01b03167f8c5be1e5ebec7d5bd14f71427d1e84f3dd0314c0f7b2291e5b200ac8c7c3b92560405160405180910390a45050565b600080610f48836106cd565b9050806001600160a01b0316846001600160a01b03161480610f8f57506001600160a01b0380821660009081526005602090815260408083209388168352929052205460ff165b80610dca5750836001600160a01b0316610fa884610540565b6001600160a01b031614949350505050565b826001600160a01b0316610fcd826106cd565b6001600160a01b0316146110315760405162461bcd60e51b815260206004820152602560248201527f4552433732313a207472616e736665722066726f6d20696e636f72726563742060448201526437bbb732b960d91b60648201526084016105db565b6001600160a01b0382166110935760405162461bcd60e51b8152602060048201526024808201527f4552433732313a207472616e7366657220746f20746865207a65726f206164646044820152637265737360e01b60648201526084016105db565b600081815260046020908152604080832080546001600160a01b03191690556001600160a01b0386168352600390915281208054600192906110d6908490611ed6565b90915550506001600160a01b0382166000908152600360205260408120805460019290611104908490611fd3565b909155505060008181526002602052604080822080546001600160a01b0319166001600160a01b0386811691821790925591518493918716917fddf252ad1be2c89b69c2b068fc378daa952ba7f163c4a11628f55a4df523b3ef91a4505050565b610a048282604051806020016040528060008152506114e6565b60408051808201825260038082526202433360ec1b60208084019190915283518085019094529083526214d3d360ea1b908301526060916000846111e057604051806040016040528060058152602001642aa72222a960d91b8152506111fe565b6040518060400160405280600481526020016327ab22a960e11b8152505b905060006009600a84848760405160200161121d959493929190612084565b6040516020818303038152906040529050600061126684848761123f86611519565b604051602001611252949392919061210d565b604051602081830303815290604052611519565b905060008160405160200161127b919061220e565b60408051601f1981840301815291905298975050505050505050565b6000828152600260205260409020546001600160a01b03166113125760405162461bcd60e51b815260206004820152602e60248201527f45524337323155524953746f726167653a2055524920736574206f66206e6f6e60448201526d32bc34b9ba32b73a103a37b5b2b760911b60648201526084016105db565b6000828152600660209081526040909120825161067c92840190611a62565b816001600160a01b0316836001600160a01b0316036113925760405162461bcd60e51b815260206004820152601960248201527f4552433732313a20617070726f766520746f2063616c6c65720000000000000060448201526064016105db565b6001600160a01b03838116600081815260056020908152604080832094871680845294825291829020805460ff191686151590811790915591519182527f17307eab39ab6107e8899845ad3d59bd9653f200f220920489ca2b5937696c31910160405180910390a3505050565b61140881611683565b6000818152600660205260409020805461142190611e1f565b159050610ecb576000818152600660205260408120610ecb91611ae6565b61144a848484610fba565b6114568484848461171e565b610c8a5760405162461bcd60e51b81526004016105db90612253565b606061147d82610e6c565b600061149460408051602081019091526000815290565b905060008151116114b457604051806020016040528060008152506114df565b806114be8461181f565b6040516020016114cf929190611fa4565b6040516020818303038152906040525b9392505050565b6114f08383611920565b6114fd600084848461171e565b61067c5760405162461bcd60e51b81526004016105db90612253565b8051606090600081900361153d575050604080516020810190915260008152919050565b6000600361154c836002611fd3565b61155691906122bb565b6115619060046122cf565b90506000611570826020611fd3565b67ffffffffffffffff81111561158857611588611cfa565b6040519080825280601f01601f1916602001820160405280156115b2576020820181803683370190505b5090506000604051806060016040528060408152602001612373604091399050600181016020830160005b8681101561163e576003818a01810151603f601282901c8116860151600c83901c8216870151600684901c831688015192909316870151600891821b60ff94851601821b92841692909201901b91160160e01b8352600490920191016115dd565b506003860660018114611658576002811461166957611675565b613d3d60f01b600119830152611675565b603d60f81b6000198301525b505050918152949350505050565b600061168e826106cd565b905061169b600083610ece565b6001600160a01b03811660009081526003602052604081208054600192906116c4908490611ed6565b909155505060008281526002602052604080822080546001600160a01b0319169055518391906001600160a01b038416907fddf252ad1be2c89b69c2b068fc378daa952ba7f163c4a11628f55a4df523b3ef908390a45050565b60006001600160a01b0384163b1561181457604051630a85bd0160e11b81526001600160a01b0385169063150b7a02906117629033908990889088906004016122ee565b6020604051808303816000875af192505050801561179d575060408051601f3d908101601f1916820190925261179a9181019061232b565b60015b6117fa573d8080156117cb576040519150601f19603f3d011682016040523d82523d6000602084013e6117d0565b606091505b5080516000036117f25760405162461bcd60e51b81526004016105db90612253565b805181602001fd5b6001600160e01b031916630a85bd0160e11b149050610dca565b506001949350505050565b6060816000036118465750506040805180820190915260018152600360fc1b602082015290565b8160005b8115611870578061185a81611ebd565b91506118699050600a836122bb565b915061184a565b60008167ffffffffffffffff81111561188b5761188b611cfa565b6040519080825280601f01601f1916602001820160405280156118b5576020820181803683370190505b5090505b8415610dca576118ca600183611ed6565b91506118d7600a86612348565b6118e2906030611fd3565b60f81b8183815181106118f7576118f761235c565b60200101906001600160f81b031916908160001a905350611919600a866122bb565b94506118b9565b6001600160a01b0382166119765760405162461bcd60e51b815260206004820181905260248201527f4552433732313a206d696e7420746f20746865207a65726f206164647265737360448201526064016105db565b6000818152600260205260409020546001600160a01b0316156119db5760405162461bcd60e51b815260206004820152601c60248201527f4552433732313a20746f6b656e20616c7265616479206d696e7465640000000060448201526064016105db565b6001600160a01b0382166000908152600360205260408120805460019290611a04908490611fd3565b909155505060008181526002602052604080822080546001600160a01b0319166001600160a01b03861690811790915590518392907fddf252ad1be2c89b69c2b068fc378daa952ba7f163c4a11628f55a4df523b3ef908290a45050565b828054611a6e90611e1f565b90600052602060002090601f016020900481019282611a905760008555611ad6565b82601f10611aa957805160ff1916838001178555611ad6565b82800160010185558215611ad6579182015b82811115611ad6578251825591602001919060010190611abb565b50611ae2929150611b1c565b5090565b508054611af290611e1f565b6000825580601f10611b02575050565b601f016020900490600052602060002090810190610ecb91905b5b80821115611ae25760008155600101611b1d565b6001600160e01b031981168114610ecb57600080fd5b600060208284031215611b5957600080fd5b81356114df81611b31565b60005b83811015611b7f578181015183820152602001611b67565b83811115610c8a5750506000910152565b60008151808452611ba8816020860160208601611b64565b601f01601f19169290920160200192915050565b6020815260006114df6020830184611b90565b600060208284031215611be157600080fd5b5035919050565b80356001600160a01b0381168114611bff57600080fd5b919050565b60008060408385031215611c1757600080fd5b611c2083611be8565b946020939093013593505050565b600080600060608486031215611c4357600080fd5b611c4c84611be8565b9250611c5a60208501611be8565b9150604084013590509250925092565b60008060008060808587031215611c8057600080fd5b611c8985611be8565b966020860135965060408601359560600135945092505050565b600060208284031215611cb557600080fd5b6114df82611be8565b60008060408385031215611cd157600080fd5b611cda83611be8565b915060208301358015158114611cef57600080fd5b809150509250929050565b634e487b7160e01b600052604160045260246000fd5b60008060008060808587031215611d2657600080fd5b611d2f85611be8565b9350611d3d60208601611be8565b925060408501359150606085013567ffffffffffffffff80821115611d6157600080fd5b818701915087601f830112611d7557600080fd5b813581811115611d8757611d87611cfa565b604051601f8201601f19908116603f01168101908382118183101715611daf57611daf611cfa565b816040528281528a6020848701011115611dc857600080fd5b82602086016020830137600060208483010152809550505050505092959194509250565b60008060408385031215611dff57600080fd5b611e0883611be8565b9150611e1660208401611be8565b90509250929050565b600181811c90821680611e3357607f821691505b602082108103611e5357634e487b7160e01b600052602260045260246000fd5b50919050565b6020808252602e908201527f4552433732313a2063616c6c6572206973206e6f7420746f6b656e206f776e6560408201526d1c881b9bdc88185c1c1c9bdd995960921b606082015260800190565b634e487b7160e01b600052601160045260246000fd5b600060018201611ecf57611ecf611ea7565b5060010190565b600082821015611ee857611ee8611ea7565b500390565b805169ffffffffffffffffffff81168114611bff57600080fd5b600080600080600060a08688031215611f1f57600080fd5b611f2886611eed565b9450602086015193506040860151925060608601519150611f4b60808701611eed565b90509295509295909350565b6020808252602d908201527f50726564696374696f6e4d61726b65743a2063616e277420657865726369736560408201526c0818481b1bdcda5b99c818995d609a1b606082015260800190565b60008351611fb6818460208801611b64565b835190830190611fca818360208801611b64565b01949350505050565b60008219821115611fe657611fe6611ea7565b500190565b8054600090600181811c908083168061200557607f831692505b6020808410820361202657634e487b7160e01b600052602260045260246000fd5b81801561203a576001811461204b57612078565b60ff19861689528489019650612078565b60008881526020902060005b868110156120705781548b820152908501908301612057565b505084890196505b50505050505092915050565b60006120996120938389611feb565b87611feb565b85516120a9818360208a01611b64565b600160fd1b910181815285519091906120c9816001850160208a01611b64565b600192019182015283516120e4816002840160208801611b64565b6c1e17ba32bc3a1f1e17b9bb339f60991b60029290910191820152600f01979650505050505050565b693d913730b6b2911d101160b11b8152845160009061213381600a850160208a01611b64565b8083019050600160fd1b80600a830152865161215681600b850160208b01611b64565b600b920191820152845161217181600c840160208901611b64565b7f222c20226465736372697074696f6e223a202241206d61726b6574206f6e2070600c92909101918201527f3270707265646963742e222c2022696d616765223a2022646174613a696d6167602c82015270194bdcdd99cade1b5b0ed8985cd94d8d0b607a1b604c82015283516121ef81605d840160208801611b64565b01612201605d820161227d60f01b9052565b605f019695505050505050565b7f646174613a6170706c69636174696f6e2f6a736f6e3b6261736536342c00000081526000825161224681601d850160208701611b64565b91909101601d0192915050565b60208082526032908201527f4552433732313a207472616e7366657220746f206e6f6e20455243373231526560408201527131b2b4bb32b91034b6b83632b6b2b73a32b960711b606082015260800190565b634e487b7160e01b600052601260045260246000fd5b6000826122ca576122ca6122a5565b500490565b60008160001904831182151516156122e9576122e9611ea7565b500290565b6001600160a01b038581168252841660208201526040810183905260806060820181905260009061232190830184611b90565b9695505050505050565b60006020828403121561233d57600080fd5b81516114df81611b31565b600082612357576123576122a5565b500690565b634e487b7160e01b600052603260045260246000fdfe4142434445464748494a4b4c4d4e4f505152535455565758595a6162636465666768696a6b6c6d6e6f707172737475767778797a303132333435363738392b2fa2646970667358221220baeba26b7978f7aa4a3a5dedc9610e362f0bd48da50b6309e8b99f350d1c13b364736f6c634300080d00333c73766720786d6c6e733d27687474703a2f2f7777772e77332e6f72672f323030302f73766727207072657365727665417370656374526174696f3d27784d696e594d696e206d656574272076696577426f783d273020302033353020333530273e3c7374796c653e2e62617365207b2066696c6c3a2077686974653b20666f6e742d66616d696c793a2073657269663b20666f6e742d73697a653a20323470783b207d3c2f7374796c653e3c726563742077696474683d273130302527206865696768743d2731303025272066696c6c3d27626c61636b27202f3e3c7465787420783d273530252720793d273530252720636c6173733d27626173652720646f6d696e616e742d626173656c696e653d276d6964646c652720746578742d616e63686f723d276d6964646c65273e",
    "linkReferences": {}
  }
}