{
  "abi": [
    {
      "inputs": [],
      "stateMutability": "nonpayable",
      "type": "constructor"
    },
    {
      "anonymous": false,
      "inputs": [
        {
          "indexed": true,
          "internalType": "address",
          "name": "owner",
          "type": "address"
        },
        {
          "indexed": true,
          "internalType": "address",
          "name": "approved",
          "type": "address"
        },
        {
          "indexed": true,
          "internalType": "uint256",
          "name": "tokenId",
          "type": "uint256"
        }
      ],
      "name": "Approval",
      "type": "event"
    },
    {
      "anonymous": false,
      "inputs": [
        {
          "indexed": true,
          "internalType": "address",
          "name": "owner",
          "type": "address"
        },
        {
          "indexed": true,
          "internalType": "address",
          "name": "operator",
          "type": "address"
        },
        {
          "indexed": false,
          "internalType": "bool",
          "name": "approved",
          "type": "bool"
        }
      ],
      "name": "ApprovalForAll",
      "type": "event"
    },
    {
      "anonymous": false,
      "inputs": [
        {
          "indexed": true,
          "internalType": "address",
          "name": "from",
          "type": "address"
        },
        {
          "indexed": true,
          "internalType": "address",
          "name": "to",
          "type": "address"
        },
        {
          "indexed": true,
          "internalType": "uint256",
          "name": "tokenId",
          "type": "uint256"
        }
      ],
      "name": "Transfer",
      "type": "event"
    },
    {
      "inputs": [
        {
          "internalType": "address",
          "name": "to",
          "type": "address"
        },
        {
          "internalType": "uint256",
          "name": "tokenId",
          "type": "uint256"
        }
      ],
      "name": "approve",
      "outputs": [],
      "stateMutability": "nonpayable",
      "type": "function"
    },
    {
      "inputs": [
        {
          "internalType": "address",
          "name": "owner",
          "type": "address"
        }
      ],
      "name": "balanceOf",
      "outputs": [
        {
          "internalType": "uint256",
          "name": "",
          "type": "uint256"
        }
      ],
      "stateMutability": "view",
      "type": "function"
    },
    {
      "inputs": [
        {
          "internalType": "address",
          "name": "priceFeed",
          "type": "address"
        },
        {
          "internalType": "int256",
          "name": "strikePrice",
          "type": "int256"
        },
        {
          "internalType": "uint256",
          "name": "expiry",
          "type": "uint256"
        },
        {
          "internalType": "uint256",
          "name": "collateral",
          "type": "uint256"
        }
      ],
      "name": "createMarket",
      "outputs": [
        {
          "internalType": "uint256",
          "name": "",
          "type": "uint256"
        },
        {
          "internalType": "uint256",
          "name": "",
          "type": "uint256"
        }
      ],
      "stateMutability": "payable",
      "type": "function"
    },
    {
      "inputs": [],
      "name": "currentMarketId",
      "outputs": [
        {
          "internalType": "uint256",
          "name": "",
          "type": "uint256"
        }
      ],
      "stateMutability": "view",
      "type": "function"
    },
    {
      "inputs": [
        {
          "internalType": "uint256",
          "name": "tokenId",
          "type": "uint256"
        }
      ],
      "name": "getApproved",
      "outputs": [
        {
          "internalType": "address",
          "name": "",
          "type": "address"
        }
      ],
      "stateMutability": "view",
      "type": "function"
    },
    {
      "inputs": [
        {
          "internalType": "uint256",
          "name": "id",
          "type": "uint256"
        }
      ],
      "name": "getMarket",
      "outputs": [
        {
          "components": [
            {
              "internalType": "address",
              "name": "priceFeed",
              "type": "address"
            },
            {
              "internalType": "int256",
              "name": "strikePrice",
              "type": "int256"
            },
            {
              "internalType": "uint256",
              "name": "expiry",
              "type": "uint256"
            },
            {
              "internalType": "uint256",
              "name": "collateral",
              "type": "uint256"
            },
            {
              "internalType": "bool",
              "name": "over",
              "type": "bool"
            }
          ],
          "internalType": "struct PredictionMarket.Market",
          "name": "",
          "type": "tuple"
        }
      ],
      "stateMutability": "view",
      "type": "function"
    },
    {
      "inputs": [
        {
          "internalType": "address",
          "name": "owner",
          "type": "address"
        },
        {
          "internalType": "address",
          "name": "operator",
          "type": "address"
        }
      ],
      "name": "isApprovedForAll",
      "outputs": [
        {
          "internalType": "bool",
          "name": "",
          "type": "bool"
        }
      ],
      "stateMutability": "view",
      "type": "function"
    },
    {
      "inputs": [
        {
          "internalType": "uint256",
          "name": "",
          "type": "uint256"
        }
      ],
      "name": "marketById",
      "outputs": [
        {
          "internalType": "address",
          "name": "priceFeed",
          "type": "address"
        },
        {
          "internalType": "int256",
          "name": "strikePrice",
          "type": "int256"
        },
        {
          "internalType": "uint256",
          "name": "expiry",
          "type": "uint256"
        },
        {
          "internalType": "uint256",
          "name": "collateral",
          "type": "uint256"
        },
        {
          "internalType": "bool",
          "name": "over",
          "type": "bool"
        }
      ],
      "stateMutability": "view",
      "type": "function"
    },
    {
      "inputs": [],
      "name": "name",
      "outputs": [
        {
          "internalType": "string",
          "name": "",
          "type": "string"
        }
      ],
      "stateMutability": "view",
      "type": "function"
    },
    {
      "inputs": [
        {
          "internalType": "uint256",
          "name": "tokenId",
          "type": "uint256"
        }
      ],
      "name": "ownerOf",
      "outputs": [
        {
          "internalType": "address",
          "name": "",
          "type": "address"
        }
      ],
      "stateMutability": "view",
      "type": "function"
    },
    {
      "inputs": [
        {
          "internalType": "address",
          "name": "from",
          "type": "address"
        },
        {
          "internalType": "address",
          "name": "to",
          "type": "address"
        },
        {
          "internalType": "uint256",
          "name": "tokenId",
          "type": "uint256"
        }
      ],
      "name": "safeTransferFrom",
      "outputs": [],
      "stateMutability": "nonpayable",
      "type": "function"
    },
    {
      "inputs": [
        {
          "internalType": "address",
          "name": "from",
          "type": "address"
        },
        {
          "internalType": "address",
          "name": "to",
          "type": "address"
        },
        {
          "internalType": "uint256",
          "name": "tokenId",
          "type": "uint256"
        },
        {
          "internalType": "bytes",
          "name": "data",
          "type": "bytes"
        }
      ],
      "name": "safeTransferFrom",
      "outputs": [],
      "stateMutability": "nonpayable",
      "type": "function"
    },
    {
      "inputs": [
        {
          "internalType": "address",
          "name": "operator",
          "type": "address"
        },
        {
          "internalType": "bool",
          "name": "approved",
          "type": "bool"
        }
      ],
      "name": "setApprovalForAll",
      "outputs": [],
      "stateMutability": "nonpayable",
      "type": "function"
    },
    {
      "inputs": [
        {
          "internalType": "bytes4",
          "name": "interfaceId",
          "type": "bytes4"
        }
      ],
      "name": "supportsInterface",
      "outputs": [
        {
          "internalType": "bool",
          "name": "",
          "type": "bool"
        }
      ],
      "stateMutability": "view",
      "type": "function"
    },
    {
      "inputs": [],
      "name": "symbol",
      "outputs": [
        {
          "internalType": "string",
          "name": "",
          "type": "string"
        }
      ],
      "stateMutability": "view",
      "type": "function"
    },
    {
      "inputs": [
        {
          "internalType": "uint256",
          "name": "tokenId",
          "type": "uint256"
        }
      ],
      "name": "tokenURI",
      "outputs": [
        {
          "internalType": "string",
          "name": "",
          "type": "string"
        }
      ],
      "stateMutability": "view",
      "type": "function"
    },
    {
      "inputs": [
        {
          "internalType": "address",
          "name": "from",
          "type": "address"
        },
        {
          "internalType": "address",
          "name": "to",
          "type": "address"
        },
        {
          "internalType": "uint256",
          "name": "tokenId",
          "type": "uint256"
        }
      ],
      "name": "transferFrom",
      "outputs": [],
      "stateMutability": "nonpayable",
      "type": "function"
    }
  ],
  "bytecode": {
    "object": "0x60806040523480156200001157600080fd5b50604080518082018252600a8152691c0c9c1c1c99591a58dd60b21b60208083019182528351808501909452600384526207032760ec1b9084015281519192916200005f9160009162000083565b5080516200007590600190602084019062000083565b505060006008555062000165565b828054620000919062000129565b90600052602060002090601f016020900481019282620000b5576000855562000100565b82601f10620000d057805160ff191683800117855562000100565b8280016001018555821562000100579182015b8281111562000100578251825591602001919060010190620000e3565b506200010e92915062000112565b5090565b5b808211156200010e576000815560010162000113565b600181811c908216806200013e57607f821691505b6020821081036200015f57634e487b7160e01b600052602260045260246000fd5b50919050565b6118c980620001756000396000f3fe6080604052600436106100fe5760003560e01c80636f0691bf11610095578063b88d4fde11610064578063b88d4fde146102b5578063bc37bf55146102d5578063c87b56dd14610360578063e985e9c514610380578063eb44fdd3146103c957600080fd5b80636f0691bf1461023857806370a082311461026057806395d89b4114610280578063a22cb4651461029557600080fd5b806323b872dd116100d157806323b872dd146101b457806337c3f2f9146101d457806342842e0e146101f85780636352211e1461021857600080fd5b806301ffc9a71461010357806306fdde0314610138578063081812fc1461015a578063095ea7b314610192575b600080fd5b34801561010f57600080fd5b5061012361011e3660046113a6565b610431565b60405190151581526020015b60405180910390f35b34801561014457600080fd5b5061014d610483565b60405161012f919061141b565b34801561016657600080fd5b5061017a61017536600461142e565b610515565b6040516001600160a01b03909116815260200161012f565b34801561019e57600080fd5b506101b26101ad366004611463565b61053c565b005b3480156101c057600080fd5b506101b26101cf36600461148d565b610656565b3480156101e057600080fd5b506101ea60085481565b60405190815260200161012f565b34801561020457600080fd5b506101b261021336600461148d565b610687565b34801561022457600080fd5b5061017a61023336600461142e565b6106a2565b61024b6102463660046114c9565b610702565b6040805192835260208301919091520161012f565b34801561026c57600080fd5b506101ea61027b366004611502565b61090b565b34801561028c57600080fd5b5061014d610991565b3480156102a157600080fd5b506101b26102b036600461151d565b6109a0565b3480156102c157600080fd5b506101b26102d036600461156f565b6109af565b3480156102e157600080fd5b5061032c6102f036600461142e565b600760205260009081526040902080546001820154600283015460038401546004909401546001600160a01b0390931693919290919060ff1685565b604080516001600160a01b03909616865260208601949094529284019190915260608301521515608082015260a00161012f565b34801561036c57600080fd5b5061014d61037b36600461142e565b6109e7565b34801561038c57600080fd5b5061012361039b36600461164b565b6001600160a01b03918216600090815260056020908152604080832093909416825291909152205460ff1690565b3480156103d557600080fd5b506103e96103e436600461142e565b610af7565b60405161012f919081516001600160a01b0316815260208083015190820152604080830151908201526060808301519082015260809182015115159181019190915260a00190565b60006001600160e01b031982166380ac58cd60e01b148061046257506001600160e01b03198216635b5e139f60e01b145b8061047d57506301ffc9a760e01b6001600160e01b03198316145b92915050565b6060600080546104929061167e565b80601f01602080910402602001604051908101604052809291908181526020018280546104be9061167e565b801561050b5780601f106104e05761010080835404028352916020019161050b565b820191906000526020600020905b8154815290600101906020018083116104ee57829003601f168201915b5050505050905090565b600061052082610b91565b506000908152600460205260409020546001600160a01b031690565b6000610547826106a2565b9050806001600160a01b0316836001600160a01b0316036105b95760405162461bcd60e51b815260206004820152602160248201527f4552433732313a20617070726f76616c20746f2063757272656e74206f776e656044820152603960f91b60648201526084015b60405180910390fd5b336001600160a01b03821614806105d557506105d5813361039b565b6106475760405162461bcd60e51b815260206004820152603e60248201527f4552433732313a20617070726f76652063616c6c6572206973206e6f7420746f60448201527f6b656e206f776e6572206e6f7220617070726f76656420666f7220616c6c000060648201526084016105b0565b6106518383610bf3565b505050565b6106603382610c61565b61067c5760405162461bcd60e51b81526004016105b0906116b8565b610651838383610cdf565b610651838383604051806020016040528060008152506109af565b6000818152600260205260408120546001600160a01b03168061047d5760405162461bcd60e51b8152602060048201526018602482015277115490cdcc8c4e881a5b9d985b1a59081d1bdad95b88125160421b60448201526064016105b0565b6000803483146107545760405162461bcd60e51b815260206004820152601760248201527f77726f6e6720636f6c6c61746572616c20616d6f756e7400000000000000000060448201526064016105b0565b60006040518060a00160405280886001600160a01b0316815260200187815260200186815260200185815260200160011515815250905060006040518060a00160405280896001600160a01b031681526020018881526020018781526020018681526020016000151581525090508160076000600854815260200190815260200160002060008201518160000160006101000a8154816001600160a01b0302191690836001600160a01b0316021790555060208201518160010155604082015181600201556060820151816003015560808201518160040160006101000a81548160ff021916908315150217905550905050610866336008600081548092919061085d9061171c565b91905055610e8a565b60088054600090815260076020908152604091829020845181546001600160a01b0319166001600160a01b039091161781559084015160018201559083015160028201556060830151600382015560808301516004909101805460ff1916911515919091179055546108d9903390610e8a565b60016008546108e89190611735565b600880549060006108f88361171c565b9190505593509350505094509492505050565b60006001600160a01b0382166109755760405162461bcd60e51b815260206004820152602960248201527f4552433732313a2061646472657373207a65726f206973206e6f7420612076616044820152683634b21037bbb732b960b91b60648201526084016105b0565b506001600160a01b031660009081526003602052604090205490565b6060600180546104929061167e565b6109ab338383610ea4565b5050565b6109b93383610c61565b6109d55760405162461bcd60e51b81526004016105b0906116b8565b6109e184848484610f72565b50505050565b60606109f282610b91565b60008281526006602052604081208054610a0b9061167e565b80601f0160208091040260200160405190810160405280929190818152602001828054610a379061167e565b8015610a845780601f10610a5957610100808354040283529160200191610a84565b820191906000526020600020905b815481529060010190602001808311610a6757829003601f168201915b505050505090506000610aa260408051602081019091526000815290565b90508051600003610ab4575092915050565b815115610ae6578082604051602001610ace92919061174c565b60405160208183030381529060405292505050919050565b610aef84610fa5565b949350505050565b610b346040518060a0016040528060006001600160a01b031681526020016000815260200160008152602001600081526020016000151581525090565b50600090815260076020908152604091829020825160a08101845281546001600160a01b031681526001820154928101929092526002810154928201929092526003820154606082015260049091015460ff161515608082015290565b6000818152600260205260409020546001600160a01b0316610bf05760405162461bcd60e51b8152602060048201526018602482015277115490cdcc8c4e881a5b9d985b1a59081d1bdad95b88125160421b60448201526064016105b0565b50565b600081815260046020526040902080546001600160a01b0319166001600160a01b0384169081179091558190610c28826106a2565b6001600160a01b03167f8c5be1e5ebec7d5bd14f71427d1e84f3dd0314c0f7b2291e5b200ac8c7c3b92560405160405180910390a45050565b600080610c6d836106a2565b9050806001600160a01b0316846001600160a01b03161480610cb457506001600160a01b0380821660009081526005602090815260408083209388168352929052205460ff165b80610aef5750836001600160a01b0316610ccd84610515565b6001600160a01b031614949350505050565b826001600160a01b0316610cf2826106a2565b6001600160a01b031614610d565760405162461bcd60e51b815260206004820152602560248201527f4552433732313a207472616e736665722066726f6d20696e636f72726563742060448201526437bbb732b960d91b60648201526084016105b0565b6001600160a01b038216610db85760405162461bcd60e51b8152602060048201526024808201527f4552433732313a207472616e7366657220746f20746865207a65726f206164646044820152637265737360e01b60648201526084016105b0565b600081815260046020908152604080832080546001600160a01b03191690556001600160a01b038616835260039091528120805460019290610dfb908490611735565b90915550506001600160a01b0382166000908152600360205260408120805460019290610e2990849061177b565b909155505060008181526002602052604080822080546001600160a01b0319166001600160a01b0386811691821790925591518493918716917fddf252ad1be2c89b69c2b068fc378daa952ba7f163c4a11628f55a4df523b3ef91a4505050565b6109ab828260405180602001604052806000815250611019565b816001600160a01b0316836001600160a01b031603610f055760405162461bcd60e51b815260206004820152601960248201527f4552433732313a20617070726f766520746f2063616c6c65720000000000000060448201526064016105b0565b6001600160a01b03838116600081815260056020908152604080832094871680845294825291829020805460ff191686151590811790915591519182527f17307eab39ab6107e8899845ad3d59bd9653f200f220920489ca2b5937696c31910160405180910390a3505050565b610f7d848484610cdf565b610f898484848461104c565b6109e15760405162461bcd60e51b81526004016105b090611793565b6060610fb082610b91565b6000610fc760408051602081019091526000815290565b90506000815111610fe75760405180602001604052806000815250611012565b80610ff18461114d565b60405160200161100292919061174c565b6040516020818303038152906040525b9392505050565b611023838361124e565b611030600084848461104c565b6106515760405162461bcd60e51b81526004016105b090611793565b60006001600160a01b0384163b1561114257604051630a85bd0160e11b81526001600160a01b0385169063150b7a02906110909033908990889088906004016117e5565b6020604051808303816000875af19250505080156110cb575060408051601f3d908101601f191682019092526110c891810190611822565b60015b611128573d8080156110f9576040519150601f19603f3d011682016040523d82523d6000602084013e6110fe565b606091505b5080516000036111205760405162461bcd60e51b81526004016105b090611793565b805181602001fd5b6001600160e01b031916630a85bd0160e11b149050610aef565b506001949350505050565b6060816000036111745750506040805180820190915260018152600360fc1b602082015290565b8160005b811561119e57806111888161171c565b91506111979050600a83611855565b9150611178565b60008167ffffffffffffffff8111156111b9576111b9611559565b6040519080825280601f01601f1916602001820160405280156111e3576020820181803683370190505b5090505b8415610aef576111f8600183611735565b9150611205600a86611869565b61121090603061177b565b60f81b8183815181106112255761122561187d565b60200101906001600160f81b031916908160001a905350611247600a86611855565b94506111e7565b6001600160a01b0382166112a45760405162461bcd60e51b815260206004820181905260248201527f4552433732313a206d696e7420746f20746865207a65726f206164647265737360448201526064016105b0565b6000818152600260205260409020546001600160a01b0316156113095760405162461bcd60e51b815260206004820152601c60248201527f4552433732313a20746f6b656e20616c7265616479206d696e7465640000000060448201526064016105b0565b6001600160a01b038216600090815260036020526040812080546001929061133290849061177b565b909155505060008181526002602052604080822080546001600160a01b0319166001600160a01b03861690811790915590518392907fddf252ad1be2c89b69c2b068fc378daa952ba7f163c4a11628f55a4df523b3ef908290a45050565b6001600160e01b031981168114610bf057600080fd5b6000602082840312156113b857600080fd5b813561101281611390565b60005b838110156113de5781810151838201526020016113c6565b838111156109e15750506000910152565b600081518084526114078160208601602086016113c3565b601f01601f19169290920160200192915050565b60208152600061101260208301846113ef565b60006020828403121561144057600080fd5b5035919050565b80356001600160a01b038116811461145e57600080fd5b919050565b6000806040838503121561147657600080fd5b61147f83611447565b946020939093013593505050565b6000806000606084860312156114a257600080fd5b6114ab84611447565b92506114b960208501611447565b9150604084013590509250925092565b600080600080608085870312156114df57600080fd5b6114e885611447565b966020860135965060408601359560600135945092505050565b60006020828403121561151457600080fd5b61101282611447565b6000806040838503121561153057600080fd5b61153983611447565b91506020830135801515811461154e57600080fd5b809150509250929050565b634e487b7160e01b600052604160045260246000fd5b6000806000806080858703121561158557600080fd5b61158e85611447565b935061159c60208601611447565b925060408501359150606085013567ffffffffffffffff808211156115c057600080fd5b818701915087601f8301126115d457600080fd5b8135818111156115e6576115e6611559565b604051601f8201601f19908116603f0116810190838211818310171561160e5761160e611559565b816040528281528a602084870101111561162757600080fd5b82602086016020830137600060208483010152809550505050505092959194509250565b6000806040838503121561165e57600080fd5b61166783611447565b915061167560208401611447565b90509250929050565b600181811c9082168061169257607f821691505b6020821081036116b257634e487b7160e01b600052602260045260246000fd5b50919050565b6020808252602e908201527f4552433732313a2063616c6c6572206973206e6f7420746f6b656e206f776e6560408201526d1c881b9bdc88185c1c1c9bdd995960921b606082015260800190565b634e487b7160e01b600052601160045260246000fd5b60006001820161172e5761172e611706565b5060010190565b60008282101561174757611747611706565b500390565b6000835161175e8184602088016113c3565b8351908301906117728183602088016113c3565b01949350505050565b6000821982111561178e5761178e611706565b500190565b60208082526032908201527f4552433732313a207472616e7366657220746f206e6f6e20455243373231526560408201527131b2b4bb32b91034b6b83632b6b2b73a32b960711b606082015260800190565b6001600160a01b0385811682528416602082015260408101839052608060608201819052600090611818908301846113ef565b9695505050505050565b60006020828403121561183457600080fd5b815161101281611390565b634e487b7160e01b600052601260045260246000fd5b6000826118645761186461183f565b500490565b6000826118785761187861183f565b500690565b634e487b7160e01b600052603260045260246000fdfea264697066735822122085956e5eb7406d31e71be458d05fa14e1b199a1cb25af77629e63a467f1b746564736f6c634300080d0033",
    "linkReferences": {}
  }
}