{
  "abi": [
    {
      "inputs": [],
      "stateMutability": "nonpayable",
      "type": "constructor"
    },
    {
      "anonymous": false,
      "inputs": [
        {
          "indexed": true,
          "internalType": "address",
          "name": "owner",
          "type": "address"
        },
        {
          "indexed": true,
          "internalType": "address",
          "name": "approved",
          "type": "address"
        },
        {
          "indexed": true,
          "internalType": "uint256",
          "name": "tokenId",
          "type": "uint256"
        }
      ],
      "name": "Approval",
      "type": "event"
    },
    {
      "anonymous": false,
      "inputs": [
        {
          "indexed": true,
          "internalType": "address",
          "name": "owner",
          "type": "address"
        },
        {
          "indexed": true,
          "internalType": "address",
          "name": "operator",
          "type": "address"
        },
        {
          "indexed": false,
          "internalType": "bool",
          "name": "approved",
          "type": "bool"
        }
      ],
      "name": "ApprovalForAll",
      "type": "event"
    },
    {
      "anonymous": false,
      "inputs": [
        {
          "indexed": false,
          "internalType": "address",
          "name": "priceFeed",
          "type": "address"
        },
        {
          "indexed": false,
          "internalType": "int256",
          "name": "strikePrice",
          "type": "int256"
        },
        {
          "indexed": false,
          "internalType": "uint256",
          "name": "expiry",
          "type": "uint256"
        },
        {
          "indexed": false,
          "internalType": "uint256",
          "name": "collateral",
          "type": "uint256"
        },
        {
          "indexed": false,
          "internalType": "uint256",
          "name": "overPredictionId",
          "type": "uint256"
        },
        {
          "indexed": false,
          "internalType": "uint256",
          "name": "underPredictionId",
          "type": "uint256"
        }
      ],
      "name": "MarketCreated",
      "type": "event"
    },
    {
      "anonymous": false,
      "inputs": [
        {
          "indexed": true,
          "internalType": "address",
          "name": "from",
          "type": "address"
        },
        {
          "indexed": true,
          "internalType": "address",
          "name": "to",
          "type": "address"
        },
        {
          "indexed": true,
          "internalType": "uint256",
          "name": "tokenId",
          "type": "uint256"
        }
      ],
      "name": "Transfer",
      "type": "event"
    },
    {
      "inputs": [
        {
          "internalType": "address",
          "name": "to",
          "type": "address"
        },
        {
          "internalType": "uint256",
          "name": "tokenId",
          "type": "uint256"
        }
      ],
      "name": "approve",
      "outputs": [],
      "stateMutability": "nonpayable",
      "type": "function"
    },
    {
      "inputs": [
        {
          "internalType": "address",
          "name": "owner",
          "type": "address"
        }
      ],
      "name": "balanceOf",
      "outputs": [
        {
          "internalType": "uint256",
          "name": "",
          "type": "uint256"
        }
      ],
      "stateMutability": "view",
      "type": "function"
    },
    {
      "inputs": [
        {
          "internalType": "address",
          "name": "priceFeed",
          "type": "address"
        },
        {
          "internalType": "int256",
          "name": "strikePrice",
          "type": "int256"
        },
        {
          "internalType": "uint256",
          "name": "expiry",
          "type": "uint256"
        },
        {
          "internalType": "uint256",
          "name": "collateral",
          "type": "uint256"
        }
      ],
      "name": "createMarket",
      "outputs": [
        {
          "internalType": "uint256",
          "name": "",
          "type": "uint256"
        },
        {
          "internalType": "uint256",
          "name": "",
          "type": "uint256"
        },
        {
          "internalType": "uint256",
          "name": "",
          "type": "uint256"
        }
      ],
      "stateMutability": "payable",
      "type": "function"
    },
    {
      "inputs": [],
      "name": "currentMarketId",
      "outputs": [
        {
          "internalType": "uint256",
          "name": "",
          "type": "uint256"
        }
      ],
      "stateMutability": "view",
      "type": "function"
    },
    {
      "inputs": [],
      "name": "currentPredictionId",
      "outputs": [
        {
          "internalType": "uint256",
          "name": "",
          "type": "uint256"
        }
      ],
      "stateMutability": "view",
      "type": "function"
    },
    {
      "inputs": [
        {
          "internalType": "uint256",
          "name": "id",
          "type": "uint256"
        }
      ],
      "name": "exercise",
      "outputs": [],
      "stateMutability": "nonpayable",
      "type": "function"
    },
    {
      "inputs": [
        {
          "internalType": "uint256",
          "name": "tokenId",
          "type": "uint256"
        }
      ],
      "name": "getApproved",
      "outputs": [
        {
          "internalType": "address",
          "name": "",
          "type": "address"
        }
      ],
      "stateMutability": "view",
      "type": "function"
    },
    {
      "inputs": [
        {
          "internalType": "uint256",
          "name": "id",
          "type": "uint256"
        }
      ],
      "name": "getMarket",
      "outputs": [
        {
          "components": [
            {
              "internalType": "address",
              "name": "priceFeed",
              "type": "address"
            },
            {
              "internalType": "int256",
              "name": "strikePrice",
              "type": "int256"
            },
            {
              "internalType": "uint256",
              "name": "expiry",
              "type": "uint256"
            },
            {
              "internalType": "uint256",
              "name": "collateral",
              "type": "uint256"
            }
          ],
          "internalType": "struct PredictionMarket.Market",
          "name": "",
          "type": "tuple"
        }
      ],
      "stateMutability": "view",
      "type": "function"
    },
    {
      "inputs": [
        {
          "internalType": "uint256",
          "name": "id",
          "type": "uint256"
        }
      ],
      "name": "getPrediction",
      "outputs": [
        {
          "components": [
            {
              "components": [
                {
                  "internalType": "address",
                  "name": "priceFeed",
                  "type": "address"
                },
                {
                  "internalType": "int256",
                  "name": "strikePrice",
                  "type": "int256"
                },
                {
                  "internalType": "uint256",
                  "name": "expiry",
                  "type": "uint256"
                },
                {
                  "internalType": "uint256",
                  "name": "collateral",
                  "type": "uint256"
                }
              ],
              "internalType": "struct PredictionMarket.Market",
              "name": "market",
              "type": "tuple"
            },
            {
              "internalType": "bool",
              "name": "over",
              "type": "bool"
            }
          ],
          "internalType": "struct PredictionMarket.Prediction",
          "name": "",
          "type": "tuple"
        }
      ],
      "stateMutability": "view",
      "type": "function"
    },
    {
      "inputs": [
        {
          "internalType": "address",
          "name": "owner",
          "type": "address"
        },
        {
          "internalType": "address",
          "name": "operator",
          "type": "address"
        }
      ],
      "name": "isApprovedForAll",
      "outputs": [
        {
          "internalType": "bool",
          "name": "",
          "type": "bool"
        }
      ],
      "stateMutability": "view",
      "type": "function"
    },
    {
      "inputs": [
        {
          "internalType": "uint256",
          "name": "",
          "type": "uint256"
        }
      ],
      "name": "marketById",
      "outputs": [
        {
          "internalType": "address",
          "name": "priceFeed",
          "type": "address"
        },
        {
          "internalType": "int256",
          "name": "strikePrice",
          "type": "int256"
        },
        {
          "internalType": "uint256",
          "name": "expiry",
          "type": "uint256"
        },
        {
          "internalType": "uint256",
          "name": "collateral",
          "type": "uint256"
        }
      ],
      "stateMutability": "view",
      "type": "function"
    },
    {
      "inputs": [],
      "name": "name",
      "outputs": [
        {
          "internalType": "string",
          "name": "",
          "type": "string"
        }
      ],
      "stateMutability": "view",
      "type": "function"
    },
    {
      "inputs": [
        {
          "internalType": "uint256",
          "name": "tokenId",
          "type": "uint256"
        }
      ],
      "name": "ownerOf",
      "outputs": [
        {
          "internalType": "address",
          "name": "",
          "type": "address"
        }
      ],
      "stateMutability": "view",
      "type": "function"
    },
    {
      "inputs": [
        {
          "internalType": "uint256",
          "name": "",
          "type": "uint256"
        }
      ],
      "name": "predictionById",
      "outputs": [
        {
          "components": [
            {
              "internalType": "address",
              "name": "priceFeed",
              "type": "address"
            },
            {
              "internalType": "int256",
              "name": "strikePrice",
              "type": "int256"
            },
            {
              "internalType": "uint256",
              "name": "expiry",
              "type": "uint256"
            },
            {
              "internalType": "uint256",
              "name": "collateral",
              "type": "uint256"
            }
          ],
          "internalType": "struct PredictionMarket.Market",
          "name": "market",
          "type": "tuple"
        },
        {
          "internalType": "bool",
          "name": "over",
          "type": "bool"
        }
      ],
      "stateMutability": "view",
      "type": "function"
    },
    {
      "inputs": [
        {
          "internalType": "address",
          "name": "from",
          "type": "address"
        },
        {
          "internalType": "address",
          "name": "to",
          "type": "address"
        },
        {
          "internalType": "uint256",
          "name": "tokenId",
          "type": "uint256"
        }
      ],
      "name": "safeTransferFrom",
      "outputs": [],
      "stateMutability": "nonpayable",
      "type": "function"
    },
    {
      "inputs": [
        {
          "internalType": "address",
          "name": "from",
          "type": "address"
        },
        {
          "internalType": "address",
          "name": "to",
          "type": "address"
        },
        {
          "internalType": "uint256",
          "name": "tokenId",
          "type": "uint256"
        },
        {
          "internalType": "bytes",
          "name": "data",
          "type": "bytes"
        }
      ],
      "name": "safeTransferFrom",
      "outputs": [],
      "stateMutability": "nonpayable",
      "type": "function"
    },
    {
      "inputs": [
        {
          "internalType": "address",
          "name": "operator",
          "type": "address"
        },
        {
          "internalType": "bool",
          "name": "approved",
          "type": "bool"
        }
      ],
      "name": "setApprovalForAll",
      "outputs": [],
      "stateMutability": "nonpayable",
      "type": "function"
    },
    {
      "inputs": [
        {
          "internalType": "bytes4",
          "name": "interfaceId",
          "type": "bytes4"
        }
      ],
      "name": "supportsInterface",
      "outputs": [
        {
          "internalType": "bool",
          "name": "",
          "type": "bool"
        }
      ],
      "stateMutability": "view",
      "type": "function"
    },
    {
      "inputs": [],
      "name": "symbol",
      "outputs": [
        {
          "internalType": "string",
          "name": "",
          "type": "string"
        }
      ],
      "stateMutability": "view",
      "type": "function"
    },
    {
      "inputs": [
        {
          "internalType": "uint256",
          "name": "tokenId",
          "type": "uint256"
        }
      ],
      "name": "tokenURI",
      "outputs": [
        {
          "internalType": "string",
          "name": "",
          "type": "string"
        }
      ],
      "stateMutability": "view",
      "type": "function"
    },
    {
      "inputs": [
        {
          "internalType": "address",
          "name": "from",
          "type": "address"
        },
        {
          "internalType": "address",
          "name": "to",
          "type": "address"
        },
        {
          "internalType": "uint256",
          "name": "tokenId",
          "type": "uint256"
        }
      ],
      "name": "transferFrom",
      "outputs": [],
      "stateMutability": "nonpayable",
      "type": "function"
    }
  ],
  "bytecode": {
    "object": "0x61018060405260dc608081815290620027ea60a03980516200002a91600b91602090910190620000e0565b50604051806080016040528060538152602001620028c66053913980516200005b91600c91602090910190620000e0565b503480156200006957600080fd5b50604080518082018252600a8152691c0c9c1c1c99591a58dd60b21b60208083019182528351808501909452600384526207032760ec1b908401528151919291620000b791600091620000e0565b508051620000cd906001906020840190620000e0565b505060006008819055600a5550620001c2565b828054620000ee9062000186565b90600052602060002090601f0160209004810192826200011257600085556200015d565b82601f106200012d57805160ff19168380011785556200015d565b828001600101855582156200015d579182015b828111156200015d57825182559160200191906001019062000140565b506200016b9291506200016f565b5090565b5b808211156200016b576000815560010162000170565b600181811c908216806200019b57607f821691505b602082108103620001bc57634e487b7160e01b600052602260045260246000fd5b50919050565b61261880620001d26000396000f3fe60806040526004361061012a5760003560e01c806370a08231116100ab578063bc37bf551161006f578063bc37bf551461033d578063c87b56dd146103b3578063e9163055146103d3578063e985e9c514610451578063eb44fdd314610471578063fe83bece1461049e57600080fd5b806370a08231146102a857806395d89b41146102c8578063a22cb465146102dd578063b07f0a41146102fd578063b88d4fde1461031d57600080fd5b806337c3f2f9116100f257806337c3f2f91461020057806342842e0e146102245780636352211e14610244578063640313e4146102645780636f0691bf1461027a57600080fd5b806301ffc9a71461012f57806306fdde0314610164578063081812fc14610186578063095ea7b3146101be57806323b872dd146101e0575b600080fd5b34801561013b57600080fd5b5061014f61014a366004611cfb565b610554565b60405190151581526020015b60405180910390f35b34801561017057600080fd5b506101796105a6565b60405161015b9190611d70565b34801561019257600080fd5b506101a66101a1366004611d83565b610638565b6040516001600160a01b03909116815260200161015b565b3480156101ca57600080fd5b506101de6101d9366004611db8565b61065f565b005b3480156101ec57600080fd5b506101de6101fb366004611de2565b610779565b34801561020c57600080fd5b5061021660085481565b60405190815260200161015b565b34801561023057600080fd5b506101de61023f366004611de2565b6107aa565b34801561025057600080fd5b506101a661025f366004611d83565b6107c5565b34801561027057600080fd5b50610216600a5481565b61028d610288366004611e1e565b610825565b6040805193845260208401929092529082015260600161015b565b3480156102b457600080fd5b506102166102c3366004611e57565b610b11565b3480156102d457600080fd5b50610179610b97565b3480156102e957600080fd5b506101de6102f8366004611e72565b610ba6565b34801561030957600080fd5b506101de610318366004611d83565b610bb5565b34801561032957600080fd5b506101de610338366004611ec4565b610e4e565b34801561034957600080fd5b50610389610358366004611d83565b60076020526000908152604090208054600182015460028301546003909301546001600160a01b0390921692909184565b604080516001600160a01b039095168552602085019390935291830152606082015260800161015b565b3480156103bf57600080fd5b506101796103ce366004611d83565b610e80565b3480156103df57600080fd5b506104436103ee366004611d83565b600960209081526000918252604091829020825160808101845281546001600160a01b031681526001820154928101929092526002810154928201929092526003820154606082015260049091015460ff1682565b60405161015b929190611fcc565b34801561045d57600080fd5b5061014f61046c366004611fe9565b610f90565b34801561047d57600080fd5b5061049161048c366004611d83565b610fbe565b60405161015b919061201c565b3480156104aa57600080fd5b506105476104b9366004611d83565b6040805160c0810182526000918101828152606082018390526080820183905260a082018390528152602081019190915250600090815260096020908152604091829020825160c08101845281546001600160a01b03169381019384526001820154606082015260028201546080820152600382015460a08201529283526004015460ff1615159082015290565b60405161015b919061202a565b60006001600160e01b031982166380ac58cd60e01b148061058557506001600160e01b03198216635b5e139f60e01b145b806105a057506301ffc9a760e01b6001600160e01b03198316145b92915050565b6060600080546105b59061204f565b80601f01602080910402602001604051908101604052809291908181526020018280546105e19061204f565b801561062e5780601f106106035761010080835404028352916020019161062e565b820191906000526020600020905b81548152906001019060200180831161061157829003601f168201915b5050505050905090565b600061064382611040565b506000908152600460205260409020546001600160a01b031690565b600061066a826107c5565b9050806001600160a01b0316836001600160a01b0316036106dc5760405162461bcd60e51b815260206004820152602160248201527f4552433732313a20617070726f76616c20746f2063757272656e74206f776e656044820152603960f91b60648201526084015b60405180910390fd5b336001600160a01b03821614806106f857506106f88133610f90565b61076a5760405162461bcd60e51b815260206004820152603e60248201527f4552433732313a20617070726f76652063616c6c6572206973206e6f7420746f60448201527f6b656e206f776e6572206e6f7220617070726f76656420666f7220616c6c000060648201526084016106d3565b61077483836110a2565b505050565b6107833382611110565b61079f5760405162461bcd60e51b81526004016106d390612089565b61077483838361116e565b61077483838360405180602001604052806000815250610e4e565b6000818152600260205260408120546001600160a01b0316806105a05760405162461bcd60e51b8152602060048201526018602482015277115490cdcc8c4e881a5b9d985b1a59081d1bdad95b88125160421b60448201526064016106d3565b60008060003484146108795760405162461bcd60e51b815260206004820152601760248201527f77726f6e6720636f6c6c61746572616c20616d6f756e7400000000000000000060448201526064016106d3565b604080516080810182526001600160a01b03891681526020810188905290810186905260608101859052600880548291600791600091826108b9836120ed565b90915550815260208082019290925260409081016000908120845181546001600160a01b039182166001600160a01b03199182161783558686015160018085019190915587860151600280860191909155606098890151600395860155865180880188528a81528089018381528851808a018a528c8152808b01899052600a80548a5260098c52988a9020835180518254991698909716979097178755998501519386019390935596830151908401559601519181019190915593516004909401805494151560ff19909516949094179093559154610999903390611319565b600a80546109bf9160006109ac836120ed565b919050556109ba6001611333565b61144b565b600a80546000908152600960209081526040918290208451805182546001600160a01b0319166001600160a01b0390911617825580830151600183015592830151600282015560609092015160038301558301516004909101805460ff191691151591909117905554610a33903390611319565b600a8054610a54916000610a46836120ed565b919050556109ba6000611333565b7f69406da7d629f4736e298b4f83c8a3b93658773b0fcc698eeb12273f38abff568a8a8a8a6002600a54610a889190612106565b6001600a54610a979190612106565b604080516001600160a01b0390971687526020870195909552938501929092526060840152608083015260a082015260c00160405180910390a16001600854610ae09190612106565b6002600a54610aef9190612106565b6001600a54610afe9190612106565b9550955095505050509450945094915050565b60006001600160a01b038216610b7b5760405162461bcd60e51b815260206004820152602960248201527f4552433732313a2061646472657373207a65726f206973206e6f7420612076616044820152683634b21037bbb732b960b91b60648201526084016106d3565b506001600160a01b031660009081526003602052604090205490565b6060600180546105b59061204f565b610bb13383836114e5565b5050565b33610bbf826107c5565b6001600160a01b031614610c255760405162461bcd60e51b815260206004820152602760248201527f50726564696374696f6e4d61726b65743a206e6f742074686520636f727265636044820152663a1037bbb732b960c91b60648201526084016106d3565b600081815260096020908152604091829020825160c08101845281546001600160a01b031693810193845260018201546060820152600282015460808201819052600383015460a083015293815260049091015460ff1615159181019190915290421015610ce15760405162461bcd60e51b815260206004820152602360248201527f50726564696374696f6e4d61726b65743a206e6f7420617420657870697279206044820152621e595d60ea1b60648201526084016106d3565b60008160000151600001516001600160a01b031663feaf968c6040518163ffffffff1660e01b815260040160a060405180830381865afa158015610d29573d6000803e3d6000fd5b505050506040513d601f19601f82011682018060405250810190610d4d9190612137565b505050915050816020015115610d8757815160200151811215610d825760405162461bcd60e51b81526004016106d390612187565b610dab565b8151602001518112610dab5760405162461bcd60e51b81526004016106d390612187565b610db4836115b3565b81516060015160405160009133918381818185875af1925050503d8060008114610dfa576040519150601f19603f3d011682016040523d82523d6000602084013e610dff565b606091505b5050905080610e485760405162461bcd60e51b81526020600482015260156024820152743330b4b632b21032ba3432b9103a3930b739b332b960591b60448201526064016106d3565b50505050565b610e583383611110565b610e745760405162461bcd60e51b81526004016106d390612089565b610e48848484846115f3565b6060610e8b82611040565b60008281526006602052604081208054610ea49061204f565b80601f0160208091040260200160405190810160405280929190818152602001828054610ed09061204f565b8015610f1d5780601f10610ef257610100808354040283529160200191610f1d565b820191906000526020600020905b815481529060010190602001808311610f0057829003601f168201915b505050505090506000610f3b60408051602081019091526000815290565b90508051600003610f4d575092915050565b815115610f7f578082604051602001610f679291906121d4565b60405160208183030381529060405292505050919050565b610f8884611626565b949350505050565b6001600160a01b03918216600090815260056020908152604080832093909416825291909152205460ff1690565b610ff2604051806080016040528060006001600160a01b031681526020016000815260200160008152602001600081525090565b50600090815260076020908152604091829020825160808101845281546001600160a01b03168152600182015492810192909252600281015492820192909252600390910154606082015290565b6000818152600260205260409020546001600160a01b031661109f5760405162461bcd60e51b8152602060048201526018602482015277115490cdcc8c4e881a5b9d985b1a59081d1bdad95b88125160421b60448201526064016106d3565b50565b600081815260046020526040902080546001600160a01b0319166001600160a01b03841690811790915581906110d7826107c5565b6001600160a01b03167f8c5be1e5ebec7d5bd14f71427d1e84f3dd0314c0f7b2291e5b200ac8c7c3b92560405160405180910390a45050565b60008061111c836107c5565b9050806001600160a01b0316846001600160a01b0316148061114357506111438185610f90565b80610f885750836001600160a01b031661115c84610638565b6001600160a01b031614949350505050565b826001600160a01b0316611181826107c5565b6001600160a01b0316146111e55760405162461bcd60e51b815260206004820152602560248201527f4552433732313a207472616e736665722066726f6d20696e636f72726563742060448201526437bbb732b960d91b60648201526084016106d3565b6001600160a01b0382166112475760405162461bcd60e51b8152602060048201526024808201527f4552433732313a207472616e7366657220746f20746865207a65726f206164646044820152637265737360e01b60648201526084016106d3565b600081815260046020908152604080832080546001600160a01b03191690556001600160a01b03861683526003909152812080546001929061128a908490612106565b90915550506001600160a01b03821660009081526003602052604081208054600192906112b8908490612203565b909155505060008181526002602052604080822080546001600160a01b0319166001600160a01b0386811691821790925591518493918716917fddf252ad1be2c89b69c2b068fc378daa952ba7f163c4a11628f55a4df523b3ef91a4505050565b610bb182826040518060200160405280600081525061169a565b60408051808201825260038082526202433360ec1b60208084019190915283518085019094529083526214d3d360ea1b9083015260609160008461139457604051806040016040528060058152602001642aa72222a960d91b8152506113b2565b6040518060400160405280600481526020016327ab22a960e11b8152505b90506000600b600c8484876040516020016113d19594939291906122b4565b6040516020818303038152906040529050600061141a8484876113f3866116cd565b604051602001611406949392919061233d565b6040516020818303038152906040526116cd565b905060008160405160200161142f919061243e565b60408051601f1981840301815291905298975050505050505050565b6000828152600260205260409020546001600160a01b03166114c65760405162461bcd60e51b815260206004820152602e60248201527f45524337323155524953746f726167653a2055524920736574206f66206e6f6e60448201526d32bc34b9ba32b73a103a37b5b2b760911b60648201526084016106d3565b6000828152600660209081526040909120825161077492840190611c16565b816001600160a01b0316836001600160a01b0316036115465760405162461bcd60e51b815260206004820152601960248201527f4552433732313a20617070726f766520746f2063616c6c65720000000000000060448201526064016106d3565b6001600160a01b03838116600081815260056020908152604080832094871680845294825291829020805460ff191686151590811790915591519182527f17307eab39ab6107e8899845ad3d59bd9653f200f220920489ca2b5937696c31910160405180910390a3505050565b6115bc81611837565b600081815260066020526040902080546115d59061204f565b15905061109f57600081815260066020526040812061109f91611c9a565b6115fe84848461116e565b61160a848484846118d2565b610e485760405162461bcd60e51b81526004016106d390612483565b606061163182611040565b600061164860408051602081019091526000815290565b905060008151116116685760405180602001604052806000815250611693565b80611672846119d3565b6040516020016116839291906121d4565b6040516020818303038152906040525b9392505050565b6116a48383611ad4565b6116b160008484846118d2565b6107745760405162461bcd60e51b81526004016106d390612483565b805160609060008190036116f1575050604080516020810190915260008152919050565b60006003611700836002612203565b61170a91906124eb565b6117159060046124ff565b90506000611724826020612203565b67ffffffffffffffff81111561173c5761173c611eae565b6040519080825280601f01601f191660200182016040528015611766576020820181803683370190505b50905060006040518060600160405280604081526020016125a3604091399050600181016020830160005b868110156117f2576003818a01810151603f601282901c8116860151600c83901c8216870151600684901c831688015192909316870151600891821b60ff94851601821b92841692909201901b91160160e01b835260049092019101611791565b50600386066001811461180c576002811461181d57611829565b613d3d60f01b600119830152611829565b603d60f81b6000198301525b505050918152949350505050565b6000611842826107c5565b905061184f6000836110a2565b6001600160a01b0381166000908152600360205260408120805460019290611878908490612106565b909155505060008281526002602052604080822080546001600160a01b0319169055518391906001600160a01b038416907fddf252ad1be2c89b69c2b068fc378daa952ba7f163c4a11628f55a4df523b3ef908390a45050565b60006001600160a01b0384163b156119c857604051630a85bd0160e11b81526001600160a01b0385169063150b7a029061191690339089908890889060040161251e565b6020604051808303816000875af1925050508015611951575060408051601f3d908101601f1916820190925261194e9181019061255b565b60015b6119ae573d80801561197f576040519150601f19603f3d011682016040523d82523d6000602084013e611984565b606091505b5080516000036119a65760405162461bcd60e51b81526004016106d390612483565b805181602001fd5b6001600160e01b031916630a85bd0160e11b149050610f88565b506001949350505050565b6060816000036119fa5750506040805180820190915260018152600360fc1b602082015290565b8160005b8115611a245780611a0e816120ed565b9150611a1d9050600a836124eb565b91506119fe565b60008167ffffffffffffffff811115611a3f57611a3f611eae565b6040519080825280601f01601f191660200182016040528015611a69576020820181803683370190505b5090505b8415610f8857611a7e600183612106565b9150611a8b600a86612578565b611a96906030612203565b60f81b818381518110611aab57611aab61258c565b60200101906001600160f81b031916908160001a905350611acd600a866124eb565b9450611a6d565b6001600160a01b038216611b2a5760405162461bcd60e51b815260206004820181905260248201527f4552433732313a206d696e7420746f20746865207a65726f206164647265737360448201526064016106d3565b6000818152600260205260409020546001600160a01b031615611b8f5760405162461bcd60e51b815260206004820152601c60248201527f4552433732313a20746f6b656e20616c7265616479206d696e7465640000000060448201526064016106d3565b6001600160a01b0382166000908152600360205260408120805460019290611bb8908490612203565b909155505060008181526002602052604080822080546001600160a01b0319166001600160a01b03861690811790915590518392907fddf252ad1be2c89b69c2b068fc378daa952ba7f163c4a11628f55a4df523b3ef908290a45050565b828054611c229061204f565b90600052602060002090601f016020900481019282611c445760008555611c8a565b82601f10611c5d57805160ff1916838001178555611c8a565b82800160010185558215611c8a579182015b82811115611c8a578251825591602001919060010190611c6f565b50611c96929150611cd0565b5090565b508054611ca69061204f565b6000825580601f10611cb6575050565b601f01602090049060005260206000209081019061109f91905b5b80821115611c965760008155600101611cd1565b6001600160e01b03198116811461109f57600080fd5b600060208284031215611d0d57600080fd5b813561169381611ce5565b60005b83811015611d33578181015183820152602001611d1b565b83811115610e485750506000910152565b60008151808452611d5c816020860160208601611d18565b601f01601f19169290920160200192915050565b6020815260006116936020830184611d44565b600060208284031215611d9557600080fd5b5035919050565b80356001600160a01b0381168114611db357600080fd5b919050565b60008060408385031215611dcb57600080fd5b611dd483611d9c565b946020939093013593505050565b600080600060608486031215611df757600080fd5b611e0084611d9c565b9250611e0e60208501611d9c565b9150604084013590509250925092565b60008060008060808587031215611e3457600080fd5b611e3d85611d9c565b966020860135965060408601359560600135945092505050565b600060208284031215611e6957600080fd5b61169382611d9c565b60008060408385031215611e8557600080fd5b611e8e83611d9c565b915060208301358015158114611ea357600080fd5b809150509250929050565b634e487b7160e01b600052604160045260246000fd5b60008060008060808587031215611eda57600080fd5b611ee385611d9c565b9350611ef160208601611d9c565b925060408501359150606085013567ffffffffffffffff80821115611f1557600080fd5b818701915087601f830112611f2957600080fd5b813581811115611f3b57611f3b611eae565b604051601f8201601f19908116603f01168101908382118183101715611f6357611f63611eae565b816040528281528a6020848701011115611f7c57600080fd5b82602086016020830137600060208483010152809550505050505092959194509250565b80516001600160a01b031682526020808201519083015260408082015190830152606090810151910152565b60a08101611fda8285611fa0565b82151560808301529392505050565b60008060408385031215611ffc57600080fd5b61200583611d9c565b915061201360208401611d9c565b90509250929050565b608081016105a08284611fa0565b600060a08201905061203d828451611fa0565b60208301511515608083015292915050565b600181811c9082168061206357607f821691505b60208210810361208357634e487b7160e01b600052602260045260246000fd5b50919050565b6020808252602e908201527f4552433732313a2063616c6c6572206973206e6f7420746f6b656e206f776e6560408201526d1c881b9bdc88185c1c1c9bdd995960921b606082015260800190565b634e487b7160e01b600052601160045260246000fd5b6000600182016120ff576120ff6120d7565b5060010190565b600082821015612118576121186120d7565b500390565b805169ffffffffffffffffffff81168114611db357600080fd5b600080600080600060a0868803121561214f57600080fd5b6121588661211d565b945060208601519350604086015192506060860151915061217b6080870161211d565b90509295509295909350565b6020808252602d908201527f50726564696374696f6e4d61726b65743a2063616e277420657865726369736560408201526c0818481b1bdcda5b99c818995d609a1b606082015260800190565b600083516121e6818460208801611d18565b8351908301906121fa818360208801611d18565b01949350505050565b60008219821115612216576122166120d7565b500190565b8054600090600181811c908083168061223557607f831692505b6020808410820361225657634e487b7160e01b600052602260045260246000fd5b81801561226a576001811461227b576122a8565b60ff198616895284890196506122a8565b60008881526020902060005b868110156122a05781548b820152908501908301612287565b505084890196505b50505050505092915050565b60006122c96122c3838961221b565b8761221b565b85516122d9818360208a01611d18565b600160fd1b910181815285519091906122f9816001850160208a01611d18565b60019201918201528351612314816002840160208801611d18565b6c1e17ba32bc3a1f1e17b9bb339f60991b60029290910191820152600f01979650505050505050565b693d913730b6b2911d101160b11b8152845160009061236381600a850160208a01611d18565b8083019050600160fd1b80600a830152865161238681600b850160208b01611d18565b600b92019182015284516123a181600c840160208901611d18565b7f222c20226465736372697074696f6e223a202241206d61726b6574206f6e2070600c92909101918201527f3270707265646963742e222c2022696d616765223a2022646174613a696d6167602c82015270194bdcdd99cade1b5b0ed8985cd94d8d0b607a1b604c820152835161241f81605d840160208801611d18565b01612431605d820161227d60f01b9052565b605f019695505050505050565b7f646174613a6170706c69636174696f6e2f6a736f6e3b6261736536342c00000081526000825161247681601d850160208701611d18565b91909101601d0192915050565b60208082526032908201527f4552433732313a207472616e7366657220746f206e6f6e20455243373231526560408201527131b2b4bb32b91034b6b83632b6b2b73a32b960711b606082015260800190565b634e487b7160e01b600052601260045260246000fd5b6000826124fa576124fa6124d5565b500490565b6000816000190483118215151615612519576125196120d7565b500290565b6001600160a01b038581168252841660208201526040810183905260806060820181905260009061255190830184611d44565b9695505050505050565b60006020828403121561256d57600080fd5b815161169381611ce5565b600082612587576125876124d5565b500690565b634e487b7160e01b600052603260045260246000fdfe4142434445464748494a4b4c4d4e4f505152535455565758595a6162636465666768696a6b6c6d6e6f707172737475767778797a303132333435363738392b2fa26469706673582212200af8ec11de3af4c42d508c86e64fd9ed1528fddf87afb77425a50114948d224f64736f6c634300080d00333c73766720786d6c6e733d27687474703a2f2f7777772e77332e6f72672f323030302f73766727207072657365727665417370656374526174696f3d27784d696e594d696e206d656574272076696577426f783d273020302033353020333530273e3c7374796c653e2e62617365207b2066696c6c3a2077686974653b20666f6e742d66616d696c793a2073657269663b20666f6e742d73697a653a20323470783b207d3c2f7374796c653e3c726563742077696474683d273130302527206865696768743d2731303025272066696c6c3d27626c61636b27202f3e3c7465787420783d273530252720793d273530252720636c6173733d27626173652720646f6d696e616e742d626173656c696e653d276d6964646c652720746578742d616e63686f723d276d6964646c65273e",
    "linkReferences": {}
  }
}