{
  "abi": [
    {
      "inputs": [],
      "stateMutability": "nonpayable",
      "type": "constructor"
    },
    {
      "anonymous": false,
      "inputs": [
        {
          "indexed": true,
          "internalType": "address",
          "name": "owner",
          "type": "address"
        },
        {
          "indexed": true,
          "internalType": "address",
          "name": "approved",
          "type": "address"
        },
        {
          "indexed": true,
          "internalType": "uint256",
          "name": "tokenId",
          "type": "uint256"
        }
      ],
      "name": "Approval",
      "type": "event"
    },
    {
      "anonymous": false,
      "inputs": [
        {
          "indexed": true,
          "internalType": "address",
          "name": "owner",
          "type": "address"
        },
        {
          "indexed": true,
          "internalType": "address",
          "name": "operator",
          "type": "address"
        },
        {
          "indexed": false,
          "internalType": "bool",
          "name": "approved",
          "type": "bool"
        }
      ],
      "name": "ApprovalForAll",
      "type": "event"
    },
    {
      "anonymous": false,
      "inputs": [
        {
          "indexed": true,
          "internalType": "address",
          "name": "from",
          "type": "address"
        },
        {
          "indexed": true,
          "internalType": "address",
          "name": "to",
          "type": "address"
        },
        {
          "indexed": true,
          "internalType": "uint256",
          "name": "tokenId",
          "type": "uint256"
        }
      ],
      "name": "Transfer",
      "type": "event"
    },
    {
      "inputs": [
        {
          "internalType": "address",
          "name": "to",
          "type": "address"
        },
        {
          "internalType": "uint256",
          "name": "tokenId",
          "type": "uint256"
        }
      ],
      "name": "approve",
      "outputs": [],
      "stateMutability": "nonpayable",
      "type": "function"
    },
    {
      "inputs": [
        {
          "internalType": "address",
          "name": "owner",
          "type": "address"
        }
      ],
      "name": "balanceOf",
      "outputs": [
        {
          "internalType": "uint256",
          "name": "",
          "type": "uint256"
        }
      ],
      "stateMutability": "view",
      "type": "function"
    },
    {
      "inputs": [
        {
          "internalType": "address",
          "name": "priceFeed",
          "type": "address"
        },
        {
          "internalType": "int256",
          "name": "strikePrice",
          "type": "int256"
        },
        {
          "internalType": "uint256",
          "name": "expiry",
          "type": "uint256"
        },
        {
          "internalType": "uint256",
          "name": "collateral",
          "type": "uint256"
        }
      ],
      "name": "createMarket",
      "outputs": [
        {
          "internalType": "uint256",
          "name": "",
          "type": "uint256"
        },
        {
          "internalType": "uint256",
          "name": "",
          "type": "uint256"
        }
      ],
      "stateMutability": "payable",
      "type": "function"
    },
    {
      "inputs": [],
      "name": "currentMarketId",
      "outputs": [
        {
          "internalType": "uint256",
          "name": "",
          "type": "uint256"
        }
      ],
      "stateMutability": "view",
      "type": "function"
    },
    {
      "inputs": [
        {
          "internalType": "uint256",
          "name": "tokenId",
          "type": "uint256"
        }
      ],
      "name": "getApproved",
      "outputs": [
        {
          "internalType": "address",
          "name": "",
          "type": "address"
        }
      ],
      "stateMutability": "view",
      "type": "function"
    },
    {
      "inputs": [
        {
          "internalType": "uint256",
          "name": "id",
          "type": "uint256"
        }
      ],
      "name": "getMarket",
      "outputs": [
        {
          "components": [
            {
              "internalType": "address",
              "name": "priceFeed",
              "type": "address"
            },
            {
              "internalType": "int256",
              "name": "strikePrice",
              "type": "int256"
            },
            {
              "internalType": "uint256",
              "name": "expiry",
              "type": "uint256"
            },
            {
              "internalType": "uint256",
              "name": "collateral",
              "type": "uint256"
            },
            {
              "internalType": "bool",
              "name": "over",
              "type": "bool"
            }
          ],
          "internalType": "struct PredictionMarket.Market",
          "name": "",
          "type": "tuple"
        }
      ],
      "stateMutability": "view",
      "type": "function"
    },
    {
      "inputs": [
        {
          "internalType": "address",
          "name": "owner",
          "type": "address"
        },
        {
          "internalType": "address",
          "name": "operator",
          "type": "address"
        }
      ],
      "name": "isApprovedForAll",
      "outputs": [
        {
          "internalType": "bool",
          "name": "",
          "type": "bool"
        }
      ],
      "stateMutability": "view",
      "type": "function"
    },
    {
      "inputs": [
        {
          "internalType": "uint256",
          "name": "",
          "type": "uint256"
        }
      ],
      "name": "marketById",
      "outputs": [
        {
          "internalType": "address",
          "name": "priceFeed",
          "type": "address"
        },
        {
          "internalType": "int256",
          "name": "strikePrice",
          "type": "int256"
        },
        {
          "internalType": "uint256",
          "name": "expiry",
          "type": "uint256"
        },
        {
          "internalType": "uint256",
          "name": "collateral",
          "type": "uint256"
        },
        {
          "internalType": "bool",
          "name": "over",
          "type": "bool"
        }
      ],
      "stateMutability": "view",
      "type": "function"
    },
    {
      "inputs": [],
      "name": "name",
      "outputs": [
        {
          "internalType": "string",
          "name": "",
          "type": "string"
        }
      ],
      "stateMutability": "view",
      "type": "function"
    },
    {
      "inputs": [
        {
          "internalType": "uint256",
          "name": "tokenId",
          "type": "uint256"
        }
      ],
      "name": "ownerOf",
      "outputs": [
        {
          "internalType": "address",
          "name": "",
          "type": "address"
        }
      ],
      "stateMutability": "view",
      "type": "function"
    },
    {
      "inputs": [
        {
          "internalType": "address",
          "name": "from",
          "type": "address"
        },
        {
          "internalType": "address",
          "name": "to",
          "type": "address"
        },
        {
          "internalType": "uint256",
          "name": "tokenId",
          "type": "uint256"
        }
      ],
      "name": "safeTransferFrom",
      "outputs": [],
      "stateMutability": "nonpayable",
      "type": "function"
    },
    {
      "inputs": [
        {
          "internalType": "address",
          "name": "from",
          "type": "address"
        },
        {
          "internalType": "address",
          "name": "to",
          "type": "address"
        },
        {
          "internalType": "uint256",
          "name": "tokenId",
          "type": "uint256"
        },
        {
          "internalType": "bytes",
          "name": "data",
          "type": "bytes"
        }
      ],
      "name": "safeTransferFrom",
      "outputs": [],
      "stateMutability": "nonpayable",
      "type": "function"
    },
    {
      "inputs": [
        {
          "internalType": "address",
          "name": "operator",
          "type": "address"
        },
        {
          "internalType": "bool",
          "name": "approved",
          "type": "bool"
        }
      ],
      "name": "setApprovalForAll",
      "outputs": [],
      "stateMutability": "nonpayable",
      "type": "function"
    },
    {
      "inputs": [
        {
          "internalType": "bytes4",
          "name": "interfaceId",
          "type": "bytes4"
        }
      ],
      "name": "supportsInterface",
      "outputs": [
        {
          "internalType": "bool",
          "name": "",
          "type": "bool"
        }
      ],
      "stateMutability": "view",
      "type": "function"
    },
    {
      "inputs": [],
      "name": "symbol",
      "outputs": [
        {
          "internalType": "string",
          "name": "",
          "type": "string"
        }
      ],
      "stateMutability": "view",
      "type": "function"
    },
    {
      "inputs": [
        {
          "internalType": "uint256",
          "name": "tokenId",
          "type": "uint256"
        }
      ],
      "name": "tokenURI",
      "outputs": [
        {
          "internalType": "string",
          "name": "",
          "type": "string"
        }
      ],
      "stateMutability": "view",
      "type": "function"
    },
    {
      "inputs": [
        {
          "internalType": "address",
          "name": "from",
          "type": "address"
        },
        {
          "internalType": "address",
          "name": "to",
          "type": "address"
        },
        {
          "internalType": "uint256",
          "name": "tokenId",
          "type": "uint256"
        }
      ],
      "name": "transferFrom",
      "outputs": [],
      "stateMutability": "nonpayable",
      "type": "function"
    }
  ],
  "bytecode": {
    "object": "0x61018060405260dc6080818152906200214060a03980516200002a91600991602090910190620000db565b506040518060800160405280605381526020016200221c6053913980516200005b91600a91602090910190620000db565b503480156200006957600080fd5b50604080518082018252600a8152691c0c9c1c1c99591a58dd60b21b60208083019182528351808501909452600384526207032760ec1b908401528151919291620000b791600091620000db565b508051620000cd906001906020840190620000db565b5050600060085550620001bd565b828054620000e99062000181565b90600052602060002090601f0160209004810192826200010d576000855562000158565b82601f106200012857805160ff191683800117855562000158565b8280016001018555821562000158579182015b82811115620001585782518255916020019190600101906200013b565b50620001669291506200016a565b5090565b5b808211156200016657600081556001016200016b565b600181811c908216806200019657607f821691505b602082108103620001b757634e487b7160e01b600052602260045260246000fd5b50919050565b611f7380620001cd6000396000f3fe6080604052600436106100fe5760003560e01c80636f0691bf11610095578063b88d4fde11610064578063b88d4fde146102b5578063bc37bf55146102d5578063c87b56dd14610360578063e985e9c514610380578063eb44fdd3146103c957600080fd5b80636f0691bf1461023857806370a082311461026057806395d89b4114610280578063a22cb4651461029557600080fd5b806323b872dd116100d157806323b872dd146101b457806337c3f2f9146101d457806342842e0e146101f85780636352211e1461021857600080fd5b806301ffc9a71461010357806306fdde0314610138578063081812fc1461015a578063095ea7b314610192575b600080fd5b34801561010f57600080fd5b5061012361011e366004611789565b610431565b60405190151581526020015b60405180910390f35b34801561014457600080fd5b5061014d610483565b60405161012f91906117fe565b34801561016657600080fd5b5061017a610175366004611811565b610515565b6040516001600160a01b03909116815260200161012f565b34801561019e57600080fd5b506101b26101ad366004611846565b61053c565b005b3480156101c057600080fd5b506101b26101cf366004611870565b610656565b3480156101e057600080fd5b506101ea60085481565b60405190815260200161012f565b34801561020457600080fd5b506101b2610213366004611870565b610687565b34801561022457600080fd5b5061017a610233366004611811565b6106a2565b61024b6102463660046118ac565b610702565b6040805192835260208301919091520161012f565b34801561026c57600080fd5b506101ea61027b3660046118e5565b610939565b34801561028c57600080fd5b5061014d6109bf565b3480156102a157600080fd5b506101b26102b0366004611900565b6109ce565b3480156102c157600080fd5b506101b26102d0366004611952565b6109dd565b3480156102e157600080fd5b5061032c6102f0366004611811565b600760205260009081526040902080546001820154600283015460038401546004909401546001600160a01b0390931693919290919060ff1685565b604080516001600160a01b03909616865260208601949094529284019190915260608301521515608082015260a00161012f565b34801561036c57600080fd5b5061014d61037b366004611811565b610a15565b34801561038c57600080fd5b5061012361039b366004611a2e565b6001600160a01b03918216600090815260056020908152604080832093909416825291909152205460ff1690565b3480156103d557600080fd5b506103e96103e4366004611811565b610b25565b60405161012f919081516001600160a01b0316815260208083015190820152604080830151908201526060808301519082015260809182015115159181019190915260a00190565b60006001600160e01b031982166380ac58cd60e01b148061046257506001600160e01b03198216635b5e139f60e01b145b8061047d57506301ffc9a760e01b6001600160e01b03198316145b92915050565b60606000805461049290611a61565b80601f01602080910402602001604051908101604052809291908181526020018280546104be90611a61565b801561050b5780601f106104e05761010080835404028352916020019161050b565b820191906000526020600020905b8154815290600101906020018083116104ee57829003601f168201915b5050505050905090565b600061052082610bbf565b506000908152600460205260409020546001600160a01b031690565b6000610547826106a2565b9050806001600160a01b0316836001600160a01b0316036105b95760405162461bcd60e51b815260206004820152602160248201527f4552433732313a20617070726f76616c20746f2063757272656e74206f776e656044820152603960f91b60648201526084015b60405180910390fd5b336001600160a01b03821614806105d557506105d5813361039b565b6106475760405162461bcd60e51b815260206004820152603e60248201527f4552433732313a20617070726f76652063616c6c6572206973206e6f7420746f60448201527f6b656e206f776e6572206e6f7220617070726f76656420666f7220616c6c000060648201526084016105b0565b6106518383610c21565b505050565b6106603382610c8f565b61067c5760405162461bcd60e51b81526004016105b090611a9b565b610651838383610d0d565b610651838383604051806020016040528060008152506109dd565b6000818152600260205260408120546001600160a01b03168061047d5760405162461bcd60e51b8152602060048201526018602482015277115490cdcc8c4e881a5b9d985b1a59081d1bdad95b88125160421b60448201526064016105b0565b6000803483146107545760405162461bcd60e51b815260206004820152601760248201527f77726f6e6720636f6c6c61746572616c20616d6f756e7400000000000000000060448201526064016105b0565b60006040518060a00160405280886001600160a01b0316815260200187815260200186815260200185815260200160011515815250905060006040518060a00160405280896001600160a01b031681526020018881526020018781526020018681526020016000151581525090508160076000600854815260200190815260200160002060008201518160000160006101000a8154816001600160a01b0302191690836001600160a01b0316021790555060208201518160010155604082015181600201556060820151816003015560808201518160040160006101000a81548160ff02191690831515021790555090505061085233600854610eb8565b6008805461087891600061086583611aff565b919050556108736001610ed2565b610fea565b60088054600090815260076020908152604091829020845181546001600160a01b0319166001600160a01b039091161781559084015160018201559083015160028201556060830151600382015560808301516004909101805460ff1916911515919091179055546108eb903390610eb8565b6008805461090c9160006108fe83611aff565b919050556108736000610ed2565b600260085461091b9190611b18565b600160085461092a9190611b18565b93509350505094509492505050565b60006001600160a01b0382166109a35760405162461bcd60e51b815260206004820152602960248201527f4552433732313a2061646472657373207a65726f206973206e6f7420612076616044820152683634b21037bbb732b960b91b60648201526084016105b0565b506001600160a01b031660009081526003602052604090205490565b60606001805461049290611a61565b6109d9338383611084565b5050565b6109e73383610c8f565b610a035760405162461bcd60e51b81526004016105b090611a9b565b610a0f84848484611152565b50505050565b6060610a2082610bbf565b60008281526006602052604081208054610a3990611a61565b80601f0160208091040260200160405190810160405280929190818152602001828054610a6590611a61565b8015610ab25780601f10610a8757610100808354040283529160200191610ab2565b820191906000526020600020905b815481529060010190602001808311610a9557829003601f168201915b505050505090506000610ad060408051602081019091526000815290565b90508051600003610ae2575092915050565b815115610b14578082604051602001610afc929190611b2f565b60405160208183030381529060405292505050919050565b610b1d84611185565b949350505050565b610b626040518060a0016040528060006001600160a01b031681526020016000815260200160008152602001600081526020016000151581525090565b50600090815260076020908152604091829020825160a08101845281546001600160a01b031681526001820154928101929092526002810154928201929092526003820154606082015260049091015460ff161515608082015290565b6000818152600260205260409020546001600160a01b0316610c1e5760405162461bcd60e51b8152602060048201526018602482015277115490cdcc8c4e881a5b9d985b1a59081d1bdad95b88125160421b60448201526064016105b0565b50565b600081815260046020526040902080546001600160a01b0319166001600160a01b0384169081179091558190610c56826106a2565b6001600160a01b03167f8c5be1e5ebec7d5bd14f71427d1e84f3dd0314c0f7b2291e5b200ac8c7c3b92560405160405180910390a45050565b600080610c9b836106a2565b9050806001600160a01b0316846001600160a01b03161480610ce257506001600160a01b0380821660009081526005602090815260408083209388168352929052205460ff165b80610b1d5750836001600160a01b0316610cfb84610515565b6001600160a01b031614949350505050565b826001600160a01b0316610d20826106a2565b6001600160a01b031614610d845760405162461bcd60e51b815260206004820152602560248201527f4552433732313a207472616e736665722066726f6d20696e636f72726563742060448201526437bbb732b960d91b60648201526084016105b0565b6001600160a01b038216610de65760405162461bcd60e51b8152602060048201526024808201527f4552433732313a207472616e7366657220746f20746865207a65726f206164646044820152637265737360e01b60648201526084016105b0565b600081815260046020908152604080832080546001600160a01b03191690556001600160a01b038616835260039091528120805460019290610e29908490611b18565b90915550506001600160a01b0382166000908152600360205260408120805460019290610e57908490611b5e565b909155505060008181526002602052604080822080546001600160a01b0319166001600160a01b0386811691821790925591518493918716917fddf252ad1be2c89b69c2b068fc378daa952ba7f163c4a11628f55a4df523b3ef91a4505050565b6109d98282604051806020016040528060008152506111f9565b60408051808201825260038082526202433360ec1b60208084019190915283518085019094529083526214d3d360ea1b90830152606091600084610f3357604051806040016040528060058152602001642aa72222a960d91b815250610f51565b6040518060400160405280600481526020016327ab22a960e11b8152505b905060006009600a848487604051602001610f70959493929190611c0f565b60405160208183030381529060405290506000610fb9848487610f928661122c565b604051602001610fa59493929190611c98565b60405160208183030381529060405261122c565b9050600081604051602001610fce9190611d99565b60408051601f1981840301815291905298975050505050505050565b6000828152600260205260409020546001600160a01b03166110655760405162461bcd60e51b815260206004820152602e60248201527f45524337323155524953746f726167653a2055524920736574206f66206e6f6e60448201526d32bc34b9ba32b73a103a37b5b2b760911b60648201526084016105b0565b60008281526006602090815260409091208251610651928401906116da565b816001600160a01b0316836001600160a01b0316036110e55760405162461bcd60e51b815260206004820152601960248201527f4552433732313a20617070726f766520746f2063616c6c65720000000000000060448201526064016105b0565b6001600160a01b03838116600081815260056020908152604080832094871680845294825291829020805460ff191686151590811790915591519182527f17307eab39ab6107e8899845ad3d59bd9653f200f220920489ca2b5937696c31910160405180910390a3505050565b61115d848484610d0d565b61116984848484611396565b610a0f5760405162461bcd60e51b81526004016105b090611dde565b606061119082610bbf565b60006111a760408051602081019091526000815290565b905060008151116111c757604051806020016040528060008152506111f2565b806111d184611497565b6040516020016111e2929190611b2f565b6040516020818303038152906040525b9392505050565b6112038383611598565b6112106000848484611396565b6106515760405162461bcd60e51b81526004016105b090611dde565b80516060906000819003611250575050604080516020810190915260008152919050565b6000600361125f836002611b5e565b6112699190611e46565b611274906004611e5a565b90506000611283826020611b5e565b67ffffffffffffffff81111561129b5761129b61193c565b6040519080825280601f01601f1916602001820160405280156112c5576020820181803683370190505b5090506000604051806060016040528060408152602001611efe604091399050600181016020830160005b86811015611351576003818a01810151603f601282901c8116860151600c83901c8216870151600684901c831688015192909316870151600891821b60ff94851601821b92841692909201901b91160160e01b8352600490920191016112f0565b50600386066001811461136b576002811461137c57611388565b613d3d60f01b600119830152611388565b603d60f81b6000198301525b505050918152949350505050565b60006001600160a01b0384163b1561148c57604051630a85bd0160e11b81526001600160a01b0385169063150b7a02906113da903390899088908890600401611e79565b6020604051808303816000875af1925050508015611415575060408051601f3d908101601f1916820190925261141291810190611eb6565b60015b611472573d808015611443576040519150601f19603f3d011682016040523d82523d6000602084013e611448565b606091505b50805160000361146a5760405162461bcd60e51b81526004016105b090611dde565b805181602001fd5b6001600160e01b031916630a85bd0160e11b149050610b1d565b506001949350505050565b6060816000036114be5750506040805180820190915260018152600360fc1b602082015290565b8160005b81156114e857806114d281611aff565b91506114e19050600a83611e46565b91506114c2565b60008167ffffffffffffffff8111156115035761150361193c565b6040519080825280601f01601f19166020018201604052801561152d576020820181803683370190505b5090505b8415610b1d57611542600183611b18565b915061154f600a86611ed3565b61155a906030611b5e565b60f81b81838151811061156f5761156f611ee7565b60200101906001600160f81b031916908160001a905350611591600a86611e46565b9450611531565b6001600160a01b0382166115ee5760405162461bcd60e51b815260206004820181905260248201527f4552433732313a206d696e7420746f20746865207a65726f206164647265737360448201526064016105b0565b6000818152600260205260409020546001600160a01b0316156116535760405162461bcd60e51b815260206004820152601c60248201527f4552433732313a20746f6b656e20616c7265616479206d696e7465640000000060448201526064016105b0565b6001600160a01b038216600090815260036020526040812080546001929061167c908490611b5e565b909155505060008181526002602052604080822080546001600160a01b0319166001600160a01b03861690811790915590518392907fddf252ad1be2c89b69c2b068fc378daa952ba7f163c4a11628f55a4df523b3ef908290a45050565b8280546116e690611a61565b90600052602060002090601f016020900481019282611708576000855561174e565b82601f1061172157805160ff191683800117855561174e565b8280016001018555821561174e579182015b8281111561174e578251825591602001919060010190611733565b5061175a92915061175e565b5090565b5b8082111561175a576000815560010161175f565b6001600160e01b031981168114610c1e57600080fd5b60006020828403121561179b57600080fd5b81356111f281611773565b60005b838110156117c15781810151838201526020016117a9565b83811115610a0f5750506000910152565b600081518084526117ea8160208601602086016117a6565b601f01601f19169290920160200192915050565b6020815260006111f260208301846117d2565b60006020828403121561182357600080fd5b5035919050565b80356001600160a01b038116811461184157600080fd5b919050565b6000806040838503121561185957600080fd5b6118628361182a565b946020939093013593505050565b60008060006060848603121561188557600080fd5b61188e8461182a565b925061189c6020850161182a565b9150604084013590509250925092565b600080600080608085870312156118c257600080fd5b6118cb8561182a565b966020860135965060408601359560600135945092505050565b6000602082840312156118f757600080fd5b6111f28261182a565b6000806040838503121561191357600080fd5b61191c8361182a565b91506020830135801515811461193157600080fd5b809150509250929050565b634e487b7160e01b600052604160045260246000fd5b6000806000806080858703121561196857600080fd5b6119718561182a565b935061197f6020860161182a565b925060408501359150606085013567ffffffffffffffff808211156119a357600080fd5b818701915087601f8301126119b757600080fd5b8135818111156119c9576119c961193c565b604051601f8201601f19908116603f011681019083821181831017156119f1576119f161193c565b816040528281528a6020848701011115611a0a57600080fd5b82602086016020830137600060208483010152809550505050505092959194509250565b60008060408385031215611a4157600080fd5b611a4a8361182a565b9150611a586020840161182a565b90509250929050565b600181811c90821680611a7557607f821691505b602082108103611a9557634e487b7160e01b600052602260045260246000fd5b50919050565b6020808252602e908201527f4552433732313a2063616c6c6572206973206e6f7420746f6b656e206f776e6560408201526d1c881b9bdc88185c1c1c9bdd995960921b606082015260800190565b634e487b7160e01b600052601160045260246000fd5b600060018201611b1157611b11611ae9565b5060010190565b600082821015611b2a57611b2a611ae9565b500390565b60008351611b418184602088016117a6565b835190830190611b558183602088016117a6565b01949350505050565b60008219821115611b7157611b71611ae9565b500190565b8054600090600181811c9080831680611b9057607f831692505b60208084108203611bb157634e487b7160e01b600052602260045260246000fd5b818015611bc55760018114611bd657611c03565b60ff19861689528489019650611c03565b60008881526020902060005b86811015611bfb5781548b820152908501908301611be2565b505084890196505b50505050505092915050565b6000611c24611c1e8389611b76565b87611b76565b8551611c34818360208a016117a6565b600160fd1b91018181528551909190611c54816001850160208a016117a6565b60019201918201528351611c6f8160028401602088016117a6565b6c1e17ba32bc3a1f1e17b9bb339f60991b60029290910191820152600f01979650505050505050565b693d913730b6b2911d101160b11b81528451600090611cbe81600a850160208a016117a6565b8083019050600160fd1b80600a8301528651611ce181600b850160208b016117a6565b600b9201918201528451611cfc81600c8401602089016117a6565b7f222c20226465736372697074696f6e223a202241206d61726b6574206f6e2070600c92909101918201527f3270707265646963742e222c2022696d616765223a2022646174613a696d6167602c82015270194bdcdd99cade1b5b0ed8985cd94d8d0b607a1b604c8201528351611d7a81605d8401602088016117a6565b01611d8c605d820161227d60f01b9052565b605f019695505050505050565b7f646174613a6170706c69636174696f6e2f6a736f6e3b6261736536342c000000815260008251611dd181601d8501602087016117a6565b91909101601d0192915050565b60208082526032908201527f4552433732313a207472616e7366657220746f206e6f6e20455243373231526560408201527131b2b4bb32b91034b6b83632b6b2b73a32b960711b606082015260800190565b634e487b7160e01b600052601260045260246000fd5b600082611e5557611e55611e30565b500490565b6000816000190483118215151615611e7457611e74611ae9565b500290565b6001600160a01b0385811682528416602082015260408101839052608060608201819052600090611eac908301846117d2565b9695505050505050565b600060208284031215611ec857600080fd5b81516111f281611773565b600082611ee257611ee2611e30565b500690565b634e487b7160e01b600052603260045260246000fdfe4142434445464748494a4b4c4d4e4f505152535455565758595a6162636465666768696a6b6c6d6e6f707172737475767778797a303132333435363738392b2fa26469706673582212202d869887aa6a24bd42464380222efec856bc6dd22d9a908bf9c0113c9c94d81964736f6c634300080d00333c73766720786d6c6e733d27687474703a2f2f7777772e77332e6f72672f323030302f73766727207072657365727665417370656374526174696f3d27784d696e594d696e206d656574272076696577426f783d273020302033353020333530273e3c7374796c653e2e62617365207b2066696c6c3a2077686974653b20666f6e742d66616d696c793a2073657269663b20666f6e742d73697a653a20323470783b207d3c2f7374796c653e3c726563742077696474683d273130302527206865696768743d2731303025272066696c6c3d27626c61636b27202f3e3c7465787420783d273530252720793d273530252720636c6173733d27626173652720646f6d696e616e742d626173656c696e653d276d6964646c652720746578742d616e63686f723d276d6964646c65273e",
    "linkReferences": {}
  }
}